:020000020000FC
:0C0000000C9433000C9432000C9432007D
:10005C000C94C6000C9432001895112722273327D4
:10006C0044275527662777270FEF07B90FEF0DBFEA
:10007C0001E20EBF0FEF00BB01B9002701BB02B9B3
:10008C0008E3B4D0C3D0DCD008E3B0D0BFD0CFD01D
:10009C0008E3ACD0BBD008E3A9D0B8D008E0A6D018
:1000AC00B5D001E0A3D0B2D006E0A0D0AFD00EE026
:1000BC009DD0ACD000E89AD0A9D020E024BD25E09A
:1000CC0025BD21E020936E00789402E396D09ED05B
:1000DC0001E393D09BD002E390D098D001E38DD074
:1000EC0095D000E28AD092D001E387D08FD007E37D
:1000FC0084D08CD003E781D089D001E37ED086D028
:10010C0000E27BD083D000E278D080D000E275D0C2
:10011C007DD005E472D07AD004E36FD077D008EAB2
:10012C0065D074D006E569D071D005E666D06ED086
:10013C000EE663D06BD004E660D068D009E65DD0E3
:10014C0065D00EE65AD062D007E657D05FD000E2F9
:10015C0054D05CD00DE451D059D001E64ED056D0DD
:10016C0003E64BD053D008E648D050D009E645D032
:10017C004DD00EE642D04AD005E63FD047D0FFCF57
:10018C000FB70F931395103C19F00F910FBF1895E3
:10019C001127222720936E0001E028D037D000E8E9
:1001AC0025D034D003E529D031D005E626D02ED089
:1001BC000CE623D02BD005E620D028D003E61DD0AA
:1001CC0025D004E71AD022D000E217D01FD009E6C0
:1001DC0014D01CD004E711D019D005E60ED016D0DF
:1001EC000DE60BD013D00F910FBF189501BB1FD08C
:1001FC00169A1DD016981BD0089501BB179A17D0CC
:10020C00169A15D0169813D0179808950F930027A7
:10021C0000BB01BB159A0BD0169A09D00FB11698DA
:10022C0007FDF9CF15980FEF00BB0F9108958F9331
:10023C009F939FE08CE90197F1F79F918F9108951F
:0C024C00F6DFF5DFF4DFF3DFF2DF0895EA
:00000001FF
