:020000020000FC
:0C0000000C9434000C9432000C9432007C
:040050000C94830188
:10005C000C947A010C9432001895189511272227CC
:10006C0033274427552766279927AA27BB27609350
:10007C000701D2E0C0E001E00883D2E0C1E001E07A
:10008C000883D2E0C2E002E00883D2E0C3E002E0E1
:10009C000883D2E0C4E003E00883D2E0C5E001E0CD
:1000AC000883D2E0C6E004E00883D2E0C7E002E0B7
:1000BC000883D2E0C8E005E00883D2E0C9E001E0A3
:1000CC000883D2E0CAE006E00883D2E0CBE002E08D
:1000DC000883D2E0CCE007E00883D2E0CDE001E079
:1000EC000883D2E0CEE008E00883D2E0CFE002E063
:1000FC000883D2E0C0E109E00883D2E0C1E101E06D
:10010C0008830027009399000093980001E0009366
:10011C00910003EA009390000FEF07B90DB90FEFB0
:10012C000DBF01E20EBF0FEF00BB01B9002701BBF1
:10013C0002B908E33ED44DD466D408E33AD449D48A
:10014C0059D408E336D445D408E333D442D408E078
:10015C0030D43FD401E02DD43CD406E02AD439D499
:10016C000EE027D436D400E824D433D420E024BDC8
:10017C0025E025BD21E020936E0020E02093800037
:10018C0023E020938100222720936F0000EF00933F
:10019C000A01789402E314D41CD401E311D419D4C9
:1001AC0002E30ED416D401E30BD413D400E208D42A
:1001BC0010D401E305D40DD407E302D40AD403E729
:1001CC00FFD307D401E3FCD304D400E2F9D301D468
:1001DC0000E2F6D3FED300E2F3D3FBD305E4F0D375
:1001EC00F8D304E3EDD3F5D308EAE3D3F2D306E571
:1001FC00E7D3EFD305E6E4D3ECD30EE6E1D3E9D3B2
:10020C0004E6DED3E6D309E6DBD3E3D30EE6D8D39C
:10021C00E0D307E6D5D3DDD300E2D2D3DAD30DE4B5
:10022C00CFD3D7D301E6CCD3D4D303E6C9D3D1D320
:10023C0008E6C6D3CED309E6C3D3CBD30EE6C0D3E0
:10024C00C8D305E6BDD3C5D301C0FFCF3FEE5527BC
:10025C005430E1F330930B010FEF0A95F1F7009155
:10026C0009010F700F3059F021E04427443039F068
:10027C00602F622349F04395220F0C943C01330FFD
:10028C00339553950C942E01533059F0433069F04B
:10029C00042F000F040F050F0F5CB130C9F00C9444
:1002AC00EC0102E3040F0C947001503039F0513022
:1002BC0081F003E2B13071F4BB271DC1913021F004
:1002CC0091E071E070936F00A13039F00C942C0127
:1002DC0030C300E308B90C942C01772770936F009E
:1002EC009927AA270C94030491E00FB70F93139549
:1002FC00103CE9F10F910FBF18953F932F930F937B
:10030C006F930FB70F9313953FEE30930B010FEFD5
:10031C000A95F1F7009109010F700F30D1F021E02F
:10032C00220F220F220F602F622309F012C01395A7
:10033C0018B9193138F000EF08B9A1E0772770939C
:10034C006F0011270F910FBF6F910F912F913F915C
:10035C001895772770936F00992711270FEF08B91D
:10036C000F910FBF6F910F912F913F9118951127FE
:10037C009927222720936E0001E01BD32AD300E893
:10038C0018D327D303E51CD324D305E619D321D3E3
:10039C000CE616D31ED305E613D31BD303E610D3FA
:1003AC0018D304E70DD315D300E20AD312D309E610
:1003BC0007D30FD304E704D30CD305E601D309D339
:1003CC000DE6FED206D30F910FBF18950F93005375
:1003DC00013081F00230A9F00330D1F00430F9F093
:1003EC00053021F1063049F1073071F1083099F1EF
:1003FC000930C1F1E0E0F2E060810F916030C9F1A9
:10040C00A3C0E2E0F2E060810F91603091F19CC0FA
:10041C00E4E0F2E060810F91603059F195C0E6E0C4
:10042C00F2E060810F91603021F18EC0E8E0F2E0E3
:10043C0060810F916030E9F087C0EAE0F2E0608102
:10044C000F916030B1F080C0ECE0F2E060810F9170
:10045C00603079F079C0EEE0F2E060810F916030AD
:10046C0041F072C0E0E1F2E060810F91603009F080
:10047C006BC00F9301E09DD2ACD20FE4A1D2A9D2F4
:10048C0005E79ED2A6D204E79BD2A3D200E298D273
:10049C00A0D20FE695D29DD206E692D29AD200E275
:1004AC008FD297D203E78CD294D204E789D291D21F
:1004BC000FE686D28ED203E683D28BD20BE680D2A5
:1004CC0088D208EA76D285D20F91002F79D281D2C8
:1004DC000FEF08B9B0D2002708B9ADD20FEF08B9A9
:1004EC00AAD2002708B9A7D20FEF08B9A4D20027C7
:1004FC0008B9A1D200C001E05CD26BD200E859D29D
:10050C0068D203E55DD265D205E65AD262D20CE61A
:10051C0057D25FD205E654D25CD203E651D259D2FF
:10052C0004E74ED256D200E24BD253D209E648D25F
:10053C0050D204E745D24DD205E642D24AD20DE65E
:10054C003FD247D278D282CE0F93222720936E00CF
:10055C0001E02FD23ED200E82CD23BD209E430D2BB
:10056C0038D20EE62DD235D203E72AD232D205E6A6
:10057C0027D22FD202E724D22CD204E721D229D2BF
:10058C0000E21ED226D203E61BD223D20FE618D2EB
:10059C0020D209E615D21DD20EE612D21AD203E7EA
:1005AC000FD217D200E20CD214D203E209D211D22C
:1005BC000F91602F0F93062F03D20BD208EAF9D1BB
:1005CC0008D200C00F915CD168810F9388277727E0
:1005DC0078B908EAEED1FDD1062F005D002FF0D1DD
:1005EC00F8D10F936F933FEE330F330F30930B0112
:1005FC000FEF0A95F1F7009109010F700F3041F0E0
:10060C0021E0220F220F220F602F622341F100C044
:10061C006F910F91009106010170003011F700C02D
:10062C00009106010F936F933FEE330F330F30930E
:10063C000B010FEF0A95F1F7009109010F700F30C4
:10064C0041F021E0220F220F220F602F622339F09C
:10065C0000C06F910F910170013011F711C0803003
:10066C0071F08A950FEF0093990000939800DCD1FC
:10067C0000270093990000939800D6D1F0CF3BCF80
:10068C000F936F933FEE330F330F30930B010FEF3C
:10069C000A95F1F7009109010F700F3041F021E03C
:1006AC00220F220F220F602F6223C9F200C06F911C
:1006BC000F91009106010170003011F783956A9536
:1006CC00062F005D770F71600F9378B908EA71D12E
:1006DC0080D10F91002F74D17CD1603009F081CF83
:1006EC000FEF0DB907B901E064D173D104E468D1FF
:1006FC0070D105E665D16DD10CE662D16AD109E6FF
:10070C005FD167D106E75CD164D105E659D161D1DF
:10071C0002E756D15ED109E653D15BD10EE650D13A
:10072C0058D107E64DD155D100E24AD152D109E456
:10073C0047D14FD104E744D14CD105E641D149D141
:10074C000DE63ED146D16F9160530ED00FEF009362
:10075C0099000093980075D174D173D10027009340
:10076C00990000939800C7CE613089F06230A9F0EF
:10077C006330C9F06430E9F0653009F1663029F175
:10078C00673049F1683069F1693089F10895E0E02A
:10079C00F2E000810A9500830895E2E0F2E0008126
:1007AC000A9500830895E4E0F2E000810A95008345
:1007BC000895E6E0F2E000810A9500830895E8E0F0
:1007CC00F2E000810A9500830895EAE0F2E00081EE
:1007DC000A9500830895ECE0F2E000810A9500830D
:1007EC000895EEE0F2E000810A9500830895E0E1BF
:1007FC00F2E000810A950083089501E0DAD0E9D097
:10080C0001E4DED0E6D004E6DBD0E3D00DE6D8D0B0
:10081C00E0D009E6D5D0DDD00EE6D2D0DAD000E2B9
:10082C00CFD0D7D00DE6CCD0D4D00FE6C9D0D1D014
:10083C0004E6C6D0CED005E6C3D0CBD000E2C0D003
:10084C00C8D001E3BDD0C5D008EAB3D0C2D00F9355
:10085C00E0E0F2E00081005D002FB2D0BAD008B920
:10086C0006EBA7D0B6D004E2ABD0B3D0E1E0F2E017
:10087C000081005D002FA4D0ACD00F91B1E059C025
:10088C000F930053013079F00230A9F00330D9F006
:10089C00043009F1053039F1063069F1073099F16E
:1008AC000830C9F140C0E0E0F2E0C1E0D2E001E084
:1008BC0008B90F910895E2E0F2E0C3E0D2E003E062
:1008CC0008B90F910895E4E0F2E0C5E0D2E007E04A
:1008DC0008B90F910895E6E0F2E0C7E0D2E00FE02E
:1008EC0008B90F910895E8E0F2E0C9E0D2E00FE119
:1008FC0008B90F910895EAE0F2E0CBE0D2E00FE303
:10090C0008B90F910895ECE0F2E0CDE0D2E00FE7EA
:10091C0008B90F910895EEE0F2E0CFE0D2E00FEFCE
:10092C0008B90F910895E0E1F2E0C1E1D2E00F9136
:10093C000895A6DF01E03DD04CD001E441D049D070
:10094C0004E63ED046D00DE63BD043D009E638D085
:10095C0040D00EE635D03DD000E232D03AD00DE694
:10096C002FD037D00FE62CD034D004E629D031D09C
:10097C0005E626D02ED000E223D02BD0002F20D09D
:10098C0028D008EA16D025D00F936F930081005D14
:10099C00002F16D01ED006EB0CD01BD004E210D0CA
:1009AC0018D00881002F0CD014D06F910F910C949B
:1009BC002C0101BB1FD0169A1DD016981BD0089580
:1009CC0001BB179A17D0169A15D0169813D01798F2
:1009DC0008950F93002700BB01BB159A0BD0169AF4
:1009EC0009D00FB1169807FDF9CF15980FEF00BB82
:1009FC000F9108958F939F939FE08CE90197F1F7E6
:100A0C009F918F910895F6DFF5DFF4DFF3DFF2DFCE
:100A1C000895F9DFF8DFF7DFF6DF0895FADFF9DF85
:100A2C00F8DFF7DFF6DF0895F9DFF8DFF2DFF1DF4B
:100A3C00EADFE9DF0895F2DFF1DFF0DFEFDFEEDF71
:080A4C000895F9DFF8DF0895B9
:00000001FF
