:020000020000FC
:040050000C944F01BC
:0C0000000C9433000C9432000C9432007D
:10005C000C9447010C943200189511272227332752
:10006C004427552766279927AA2760930701D2E0D2
:10007C00C0E001E00883D2E0C1E002E00883D2E0F6
:10008C00C2E003E00883D2E0C3E004E00883D2E0DE
:10009C00C4E005E00883D2E0C5E006E00883D2E0C6
:1000AC00C6E007E00883D2E0C7E008E00883D2E0AE
:1000BC00C8E009E00883002700939900009398009A
:1000CC0001E00093910003EA009390000FEF07B951
:1000DC000DB90FEF0DBF01E20EBF0FEF00BB01B961
:1000EC00002701BB02B908E349D358D371D308E305
:1000FC0045D354D364D308E341D350D308E33ED360
:10010C004DD308E03BD34AD301E038D347D306E0C4
:10011C0035D344D30EE032D341D300E82FD33ED3B2
:10012C0020E024BD25E025BD21E020936E0020E0D9
:10013C002093800025E020938100222720936F00DC
:10014C0000EF00930A01789402E31FD327D301E355
:10015C001CD324D302E319D321D301E316D31ED32A
:10016C0000E213D31BD301E310D318D307E30DD351
:10017C0015D303E70AD312D301E307D30FD300E25D
:10018C0004D30CD300E201D309D300E2FED206D390
:10019C0005E4FBD203D304E3F8D200D308EAEED291
:1001AC00FDD206E5F2D2FAD205E6EFD2F7D20EE690
:1001BC00ECD2F4D204E6E9D2F1D209E6E6D2EED2E0
:1001CC000EE6E3D2EBD207E6E0D2E8D200E2DDD2D3
:1001DC00E5D20DE4DAD2E2D201E6D7D2DFD203E6E1
:1001EC00D4D2DCD208E6D1D2D9D209E6CED2D6D23C
:1001FC000EE6CBD2D3D205E6C8D2D0D201C0FFCF07
:10020C003FEE55275430E1F330930B010FEF0A9575
:10021C00F1F7009109010F700F3059F021E04427DC
:10022C00443039F0602F622349F04395220F0C942F
:10023C001601330F339553950C940801533049F044
:10024C00433059F0042F000F040F050F0F5C0C9472
:10025C00B00102E3040F0C944401503029F05130EA
:10026C0061F003E20C9444010AE2913021F091E038
:10027C0071E070936F000C94440100E308B90C9486
:10028C0006010FB70F931395103CB1F10F910FBFEF
:10029C0018953F932F930F936F930FB70F9313955D
:1002AC003FEE30930B010FEF0A95F1F70091090126
:1002BC000F700F30B1F021E0220F220F220F602FB0
:1002CC00622309F00EC013950F910FBF6F910F9120
:1002DC002F913F911F3F21F4A1E0772770936F007E
:1002EC001895772770936F0099270F910FBF6F9117
:1002FC000F912F913F9118951127222720936E0073
:10030C0001E03CD24BD200E839D248D203E53DD2D1
:10031C0045D205E63AD242D20CE637D23FD205E6B8
:10032C0034D23CD203E631D239D204E72ED236D2C3
:10033C0000E22BD233D209E628D230D204E725D200
:10034C002DD205E622D22AD20DE61FD227D20F914A
:10035C000FBF18950F930053013081F00230A9F0B4
:10036C000330D1F00430F9F0053021F1063049F1B9
:10037C00073071F1083099F10930C1F1E0E0F2E099
:10038C0060810F916030C9F1A3C0E1E0F2E06081BF
:10039C000F91603091F19CC0E2E0F2E060810F912E
:1003AC00603059F195C0E3E0F2E060810F9160306C
:1003BC0021F18EC0E4E0F2E060810F916030E9F051
:1003CC0087C0E5E0F2E060810F916030B1F080C051
:1003DC00E6E0F2E060810F91603079F079C0E7E0FF
:1003EC00F2E060810F91603041F072C0E8E0F2E021
:1003FC0060810F91603009F06BC00F9301E0BED1AA
:10040C00CDD10FE4C2D1CAD105E7BFD1C7D104E722
:10041C00BCD1C4D100E2B9D1C1D10FE6B6D1BED1A5
:10042C0006E6B3D1BBD100E2B0D1B8D103E7ADD170
:10043C00B5D104E7AAD1B2D10FE6A7D1AFD103E66B
:10044C00A4D1ACD10BE6A1D1A9D108EA97D1A6D100
:10045C000F91002F9AD1A2D10FEF08B9D1D100275B
:10046C0008B9CED10FEF08B9CBD1002708B9C8D144
:10047C000FEF08B9C5D1002708B9C2D100C001E0FF
:10048C007DD18CD100E87AD189D103E57ED186D19A
:10049C0005E67BD183D10CE678D180D105E675D108
:1004AC007DD103E672D17AD104E76FD177D100E226
:1004BC006CD174D109E669D171D104E766D16ED1E2
:1004CC0005E663D16BD10DE660D168D199D198CE98
:1004DC000F93222720936E0001E050D15FD100E8EA
:1004EC004DD15CD109E451D159D10EE64ED156D142
:1004FC0003E74BD153D105E648D150D102E745D1A2
:10050C004DD104E742D14AD100E23FD147D103E6B5
:10051C003CD144D10FE639D141D109E636D13ED197
:10052C000EE633D13BD103E730D138D100E22DD1E7
:10053C0035D103E22AD132D10F91602F0F93062FC0
:10054C0024D12CD108EA1AD129D100C0882762E025
:10055C00772778B908EA12D121D1062F005D002F38
:10056C0014D11CD10F936F933FEE330F330F309395
:10057C000B010FEF0A95F1F7009109010F700F3085
:10058C0041F021E0220F220F220F602F622341F154
:10059C0000C06F910F91009106010170003011F7AE
:1005AC0000C0009106010F936F933FEE330F330F92
:1005BC0030930B010FEF0A95F1F7009109010F70C1
:1005CC000F3041F021E0220F220F220F602F622307
:1005DC0039F000C06F910F910170013011F711C00B
:1005EC00803071F08A950FEF00939900009398007A
:1005FC0000D100270093990000939800FAD0F0CF17
:10060C003ECF0F936F933FEE330F330F30930B01AD
:10061C000FEF0A95F1F7009109010F700F3041F0BF
:10062C0021E0220F220F220F602F6223C9F200C09B
:10063C006F910F91009106010170003011F78395B5
:10064C006A95062F005D770F71600F9378B908EAF1
:10065C0095D0A4D00F91002F98D0A0D0603009F085
:10066C0081CF01E08BD09AD004E48FD097D005E6EF
:10067C008CD094D00CE689D091D009E686D08ED05F
:10068C0006E783D08BD005E680D088D002E77DD0FA
:10069C0085D009E67AD082D00EE677D07FD007E6F7
:1006AC0074D07CD000E271D079D009E46ED076D0D1
:1006BC0004E76BD073D005E668D070D00DE665D03A
:1006CC006DD06F9160530ED00FEF00939900009393
:1006DC0098009CD09BD09AD000270093990000934F
:1006EC009800CDCE613089F06230B1F06330D9F032
:1006FC00643001F1653021F1663041F1673061F110
:10070C00683081F16930A1F10895E0E0F2E00091E8
:10071C0000020A9500830895E1E0F2E000910102E5
:10072C000A9500830895E2E0F2E0009102020A9536
:10073C0000830895E3E0F2E000810A9500830895B8
:10074C00E4E0F2E000810A9500830895E5E0F2E030
:10075C0000810A9500830895E6E0F2E000810A9595
:10076C0000830895E7E0F2E000810A950083089584
:10077C00E8E0F2E000810A950083089501BB1FD0E8
:10078C00169A1DD016981BD0089501BB179A17D036
:10079C00169A15D0169813D0179808950F93002712
:1007AC0000BB01BB159A0BD0169A09D00FB1169845
:1007BC0007FDF9CF15980FEF00BB0F9108958F939C
:1007CC009F939FE08CE90197F1F79F918F9108958A
:1007DC00F6DFF5DFF4DFF3DFF2DF0895F9DFF8DFA2
:1007EC00F7DFF6DF0895FADFF9DFF8DFF7DFF6DF82
:1007FC000895F9DFF8DFF2DFF1DFEADFE9DF0895D2
:10080C00F2DFF1DFF0DFEFDFEEDF0895F9DFF8DF85
:02081C0008953D
:00000001FF
