:020000020000FC
:0C0000000C945D000C9433000C9448003C
:040050000C94E50126
:10005C000C94DC010C94320018950F930FB70F938E
:10006C00B13061F4082F005D9BD400810A3031F06F
:10007C00039500837DD5082F005DDBD40F910FBF56
:10008C000F9118950F930FB70F93B13061F4082FA0
:10009C00005D86D40081003031F00A95008368D56C
:1000AC00082F005DC6D40F910FBF0F911895112723
:1000BC00222733274427552766279927AA27BB27AA
:1000CC0060930701D2E0C0E001E00883D2E0C1E018
:1000DC0001E00883D2E0C2E002E00883D2E0C3E092
:1000EC0002E00883D2E0C4E003E00883D2E0C5E07C
:1000FC0001E00883D2E0C6E004E00883D2E0C7E068
:10010C0002E00883D2E0C8E005E00883D2E0C9E051
:10011C0001E00883D2E0CAE006E00883D2E0CBE03D
:10012C0002E00883D2E0CCE007E00883D2E0CDE027
:10013C0001E00883D2E0CEE008E00883D2E0CFE013
:10014C0002E00883D2E0C0E109E00883D2E0C1E11B
:10015C0001E008830027009399000093980001E0C8
:10016C000093910003EA009390000FEF07B90DB9CB
:10017C0003BB0FEF0DBF01E20EBF0FEF00BB01B9C8
:10018C00002701BB02B908E3B8D4C7D4E0D408E314
:10019C00B4D4C3D4D3D408E3B0D4BFD408E3ADD41F
:1001AC00BCD408E0AAD4B9D401E0A7D4B6D406E0F4
:1001BC00A4D4B3D40EE0A1D4B0D400E89ED4ADD472
:1001CC0020E024BD25E025BD21E020936E0020E039
:1001DC002093800023E020938100222720936F003E
:1001EC0012E0109369001DB311601DBB12E0109357
:1001FC0069001DB312601DBB00EF00930A017894D7
:10020C0002E382D48AD401E37FD487D402E37CD482
:10021C0084D401E379D481D400E276D47ED401E392
:10022C0073D47BD407E370D478D403E76DD475D43E
:10023C0001E36AD472D400E267D46FD400E264D4D0
:10024C006CD400E261D469D405E45ED466D404E3D2
:10025C005BD463D408EA51D460D406E555D45DD49C
:10026C0005E652D45AD40EE64FD457D404E64CD4F7
:10027C0054D409E649D451D40EE646D44ED407E6FC
:10028C0043D44BD400E240D448D40DE43DD445D4FF
:10029C0001E63AD442D403E637D43FD408E634D44A
:1002AC003CD409E631D439D40EE62ED436D405E646
:1002BC002BD433D401C0FFCF3FEE55275430E1F39C
:1002CC0030930B010FEF0A95F1F7009109010F70B4
:1002DC000F3059F021E04427443039F0602F62236D
:1002EC0099F04395220F0C947201330F339553956B
:1002FC000C946401082F005D53D300270083082F52
:10030C00005D30D496D3D8CF533059F0433071F1CF
:10031C00042F000F040F050F0F5CB130D9F10C94B2
:10032C00490202E3040FB130C1F5403029F04130ED
:10033C0081F04230F9F2C0CF082F005D31D3088133
:10034C00033059F103950883082F005D0BD471D34A
:10035C00B3CF082F005D24D308810130F1F00A954A
:10036C000883082F005DFED364D3A6CF503041F034
:10037C00513091F003E2B13081F49927BB2724C1AD
:10038C00913021F091E071E070936F00A13039F061
:10039C000C9462014ED390CF00E30C94620177274A
:1003AC0070936F009927AA270C946F0491E00FB7F4
:1003BC000F931395103CC1F10F910FBF18953F93FC
:1003CC002F930F936F930FB70F9313953FEE3093BB
:1003DC000B010FEF0A95F1F7009109010F700F3027
:1003EC00B9F021E0220F220F220F602F622309F0B7
:1003FC000FC01395193128F0A1E0772770936F0087
:10040C0011270F910FBF6F910F912F913F9118955D
:10041C00772770936F00992711270F910FBF6F915A
:10042C000F912F913F9118951127992722272093EF
:10043C006E0001E062D371D300E85FD36ED303E5A5
:10044C0063D36BD305E660D368D30CE65DD365D379
:10045C0005E65AD362D303E657D35FD304E754D3EC
:10046C005CD300E251D359D309E64ED356D304E7FB
:10047C004BD353D305E648D350D30DE645D34DD3D8
:10048C000F910FBF18950F930053013081F002307C
:10049C00A9F00330D1F00430F9F0053021F1063029
:1004AC0049F1073071F1083099F10930C1F1E0E000
:1004BC00F2E060810F916030C9F1B2C0E2E0F2E08D
:1004CC0060810F91603091F1ABC0E4E0F2E06081AB
:1004DC000F91603059F1A4C0E6E0F2E060810F9119
:1004EC00603021F19DC0E8E0F2E060810F91603056
:1004FC00E9F096C0EAE0F2E060810F916030B1F073
:10050C008FC0ECE0F2E060810F91603079F088C030
:10051C00EEE0F2E060810F91603041F081C0E0E1EB
:10052C00F2E060810F91603009F07AC00F9301E026
:10053C00E4D2F3D20FE4E8D2F0D205E7E5D2EDD263
:10054C0004E7E2D2EAD200E2DFD2E7D20FE6DCD255
:10055C00E4D206E6D9D2E1D200E2D6D2DED203E76B
:10056C00D3D2DBD204E7D0D2D8D20FE6CDD2D5D2BB
:10057C0003E6CAD2D2D20BE6C7D2CFD208EABDD29A
:10058C00CCD20F91002FC0D2C8D20FEF08B902E025
:10059C00016004BBF4D2002708B904BBF0D20FEF02
:1005AC0008B902E0016004BBEAD2002708B904BB19
:1005BC00E6D20FEF08B902E0016004BBE0D20027DD
:1005CC0008B904BBDCD200C0002708B904BB01E0A9
:1005DC0094D2A3D200E891D2A0D203E595D29DD2B9
:1005EC0005E692D29AD20CE68FD297D205E68CD23F
:1005FC0094D203E689D291D204E786D28ED200E25D
:10060C0083D28BD209E680D288D204E77DD285D200
:10061C0005E67AD282D20DE677D27FD2B0D24CCE1A
:10062C000F93222720936E0001E067D276D200E868
:10063C0064D273D209E468D270D20EE665D26DD260
:10064C0003E762D26AD205E65FD267D202E75CD2D8
:10065C0064D204E759D261D200E256D25ED203E6EC
:10066C0053D25BD20FE650D258D209E64DD255D2B6
:10067C000EE64AD252D203E747D24FD200E244D21E
:10068C004CD203E241D249D20F91602F0F93062F27
:10069C003BD243D208EA31D240D200C00F9180D174
:1006AC0068810F938827772778B908EA26D235D244
:1006BC00062F005D002F28D230D20F936F933FEEA0
:1006CC00330F330F30930B010FEF0A95F1F70091B5
:1006DC0009010F700F3041F021E0220F220F220F81
:1006EC00602F622341F100C06F910F9100910601C0
:1006FC000170003011F700C0009106010F936F9349
:10070C003FEE330F330F30930B010FEF0A95F1F7D8
:10071C00009109010F700F3041F021E0220F220FE0
:10072C00220F602F622339F000C06F910F9101707E
:10073C00013011F711C0803071F08A950FEF0093E2
:10074C0099000093980014D200270093990000930D
:10075C0098000ED2F0CF38CF0F936F933FEE330F3C
:10076C00330F30930B010FEF0A95F1F7009109014C
:10077C000F700F3041F021E0220F220F220F602F5B
:10078C006223C9F200C06F910F91009106010170B4
:10079C00003011F783956A95062F005D770F716015
:1007AC000F9378B908EAA9D1B8D10F91002FACD129
:1007BC00B4D1603009F081CF0FEF0DB907B901E06A
:1007CC009CD1ABD104E4A0D1A8D105E69DD1A5D193
:1007DC000CE69AD1A2D109E697D19FD106E794D124
:1007EC009CD105E691D199D102E78ED196D109E63B
:1007FC008BD193D10EE688D190D107E685D18DD1DE
:10080C0000E282D18AD109E47FD187D104E77CD17F
:10081C0084D105E679D181D10DE676D17ED16F9167
:10082C0060530ED00FEF0093990000939800ADD158
:10083C00ACD1ABD100270093990000939800C4CEA3
:10084C00613089F06230A9F06330C9F06430E9F0AE
:10085C00653009F1663029F1673049F1683069F18A
:10086C00693089F10895E0E0F2E000810A95008397
:10087C000895E2E0F2E000810A9500830895E4E037
:10088C00F2E000810A9500830895E6E0F2E0008131
:10089C000A9500830895E8E0F2E000810A95008350
:1008AC000895EAE0F2E000810A9500830895ECE0F7
:1008BC00F2E000810A9500830895EEE0F2E00081F9
:1008CC000A9500830895E0E1F2E000810A95008327
:1008DC00089501E012D121D101E416D11ED104E614
:1008EC0013D11BD10DE610D118D109E60DD115D1BC
:1008FC000EE60AD112D100E207D10FD10DE604D1D8
:10090C000CD10FE601D109D104E6FED006D105E6E3
:10091C00FBD003D100E2F8D000D101E3F5D0FDD03B
:10092C0008EAEBD0FAD00F93E0E0F2E000810F93ED
:10093C006F937F93662764BB0A3019F0093029F056
:10094C0006C072E0716074BB02C071E074BB003011
:10095C0021F0660F61600A95FACF68B97F916F91AB
:10096C000F910A3029F0005D002FCED0D6D006C0F2
:10097C0001E3CAD0D2D000E3C7D0CFD006EBBDD0B4
:10098C00CCD004E2C1D0C9D0E1E0F2E00081005D3E
:10099C00002FBAD0C2D00F9181E0B1E091E08CCCA5
:1009AC000F930053013079F0023099F00330B9F015
:1009BC000430D9F00530F9F0063019F1073039F16F
:1009CC00083059F130C0E0E0F2E0C1E0D2E00F9124
:1009DC000895E2E0F2E0C3E0D2E00F910895E4E084
:1009EC00F2E0C5E0D2E00F910895E6E0F2E0C7E056
:1009FC00D2E00F910895E8E0F2E0C9E0D2E00F9167
:100A0C000895EAE0F2E0CBE0D2E00F910895ECE03B
:100A1C00F2E0CDE0D2E00F910895EEE0F2E0CFE00D
:100A2C00D2E00F910895E0E1F2E0C1E1D2E00F9144
:100A3C00089598D00F93B4DF01E05FD06ED001E43D
:100A4C0063D06BD004E660D068D00DE65DD065D085
:100A5C0009E65AD062D00EE657D05FD000E254D0EF
:100A6C005CD00DE651D059D00FE64ED056D004E6EE
:100A7C004BD053D005E648D050D000E245D04DD0F5
:100A8C000F91802F8053002F3FD047D008EA35D0EC
:100A9C0044D000810F936F937F93662764BB0A3019
:100AAC0019F0093029F006C072E0716074BB02C005
:100ABC0071E074BB003021F0660F61600A95FACFCB
:100ACC0068B97F916F910F910A3029F0005D002F6A
:100ADC001BD023D006C001E317D01FD000E314D0E5
:100AEC001CD006EB0AD019D004E20ED016D0088127
:100AFC00005D002F09D011D0089501BB1FD0169AAC
:100B0C001DD016981BD0089501BB179A17D0169AB2
:100B1C0015D0169813D0179808950F93002700BB83
:100B2C0001BB159A0BD0169A09D00FB1169807FD78
:100B3C00F9CF15980FEF00BB0F9108958F939F93EA
:100B4C009FE08CE90197F1F79F918F910895F6DF63
:100B5C00F5DFF4DFF3DFF2DF0895F9DFF8DFF7DF1D
:100B6C00F6DF0895FADFF9DFF8DFF7DFF6DF089537
:100B7C00F9DFF8DFF2DFF1DFEADFE9DF0895F2DF1A
:100B8C00F1DFF0DFEFDFEEDF0895F9DFF8DF089536
:00000001FF
