:020000020000FC
:0C0000000C945D000C9433000C9448003C
:040050000C94D90132
:10005C000C94D0010C94320018950F930FB70F939A
:10006C00B13061F4082F005D75D400810A3031F095
:10007C000395008340D5082F005DB5D40F910FBFB9
:10008C000F9118950F930FB70F93B13061F4082FA0
:10009C00005D60D40081003031F00A9500832BD5CF
:1000AC00082F005DA0D40F910FBF0F911895112749
:1000BC00222733274427552766279927AA27BB27AA
:1000CC0060930701D2E0C0E001E00883D2E0C1E018
:1000DC0001E00883D2E0C2E002E00883D2E0C3E092
:1000EC0002E00883D2E0C4E003E00883D2E0C5E07C
:1000FC0001E00883D2E0C6E004E00883D2E0C7E068
:10010C0002E00883D2E0C8E005E00883D2E0C9E051
:10011C0001E00883D2E0CAE006E00883D2E0CBE03D
:10012C0002E00883D2E0CCE007E00883D2E0CDE027
:10013C0001E00883D2E0CEE008E00883D2E0CFE013
:10014C0002E00883D2E0C0E109E00883D2E0C1E11B
:10015C0001E008830027009399000093980001E0C8
:10016C000093910003EA009390000FEF07B90DB9CB
:10017C0003BB0FEF0DBF01E20EBF0FEF00BB01B9C8
:10018C00002701BB02B908E37BD48AD4A3D408E3CB
:10019C0077D486D496D408E373D482D408E370D48D
:1001AC007FD408E06DD47CD401E06AD479D406E025
:1001BC0067D476D40EE064D473D400E861D470D4E0
:1001CC0020E024BD25E025BD21E020936E0020E039
:1001DC002093800023E020938100222720936F003E
:1001EC0000EF00930A01789402E351D459D401E34F
:1001FC004ED456D402E34BD453D401E348D450D458
:10020C0000E245D44DD401E342D44AD407E33FD4B1
:10021C0047D403E73CD444D401E339D441D400E2BD
:10022C0036D43ED400E233D43BD400E230D438D4BC
:10023C0005E42DD435D404E32AD432D408EA20D4EE
:10024C002FD406E524D42CD405E621D429D40EE6EB
:10025C001ED426D404E61BD423D409E618D420D407
:10026C000EE615D41DD407E612D41AD400E20FD42E
:10027C0017D40DE40CD414D401E609D411D403E63C
:10028C0006D40ED408E603D40BD409E600D408D463
:10029C000EE6FDD305D405E6FAD302D401C0FFCF98
:1002AC003FEE55275430E1F330930B010FEF0A95D5
:1002BC00F1F7009109010F700F3059F021E044273C
:1002CC00443039F0602F622399F04395220F0C943F
:1002DC006601330F339553950C945801082F005D2C
:1002EC0039D300270083082F005DFFD37CD3D8CFF0
:1002FC00533059F0433071F1042F000F040F050FE8
:10030C000F5CB130D9F10C943D0202E3040FB13013
:10031C00C1F5403029F0413081F04230F9F2C0CFC4
:10032C00082F005D17D30881033059F1039508831A
:10033C00082F005DDAD357D3B3CF082F005D0AD353
:10034C0008810130F1F00A950883082F005DCDD3A8
:10035C004AD3A6CF503041F0513091F003E2B13086
:10036C0081F49927BB2724C1913021F091E071E0F1
:10037C0070936F00A13039F00C94560134D390CFA8
:10038C0000E30C945601772770936F009927AA27E6
:10039C000C94600491E00FB70F931395103CC1F1CE
:1003AC000F910FBF18953F932F930F936F930FB728
:1003BC000F9313953FEE30930B010FEF0A95F1F766
:1003CC00009109010F700F30B9F021E0220F220FBC
:1003DC00220F602F622309F00FC01395193128F0FA
:1003EC00A1E0772770936F0011270F910FBF6F91CA
:1003FC000F912F913F911895772770936F00992744
:10040C0011270F910FBF6F910F912F913F9118955D
:10041C0011279927222720936E0001E031D340D376
:10042C0000E82ED33DD303E532D33AD305E62FD3E0
:10043C0037D30CE62CD334D305E629D331D303E6DA
:10044C0026D32ED304E723D32BD300E220D328D3F7
:10045C0009E61DD325D304E71AD322D305E617D317
:10046C001FD30DE614D31CD30F910FBF18950F9308
:10047C000053013081F00230A9F00330D1F0043088
:10048C00F9F0053021F1063049F1073071F10830EF
:10049C0099F10930C1F1E0E0F2E060810F91603038
:1004AC00C9F1AFC0E2E0F2E060810F91603091F1F0
:1004BC00A8C0E4E0F2E060810F91603059F1A1C076
:1004CC00E6E0F2E060810F91603021F19AC0E8E043
:1004DC00F2E060810F916030E9F093C0EAE0F2E065
:1004EC0060810F916030B1F08CC0ECE0F2E0608183
:1004FC000F91603079F085C0EEE0F2E060810F91F1
:10050C00603041F07EC0E0E1F2E060810F9160303C
:10051C0009F077C00F9301E0B3D2C2D20FE4B7D287
:10052C00BFD205E7B4D2BCD204E7B1D2B9D200E253
:10053C00AED2B6D20FE6ABD2B3D206E6A8D2B0D2C8
:10054C0000E2A5D2ADD203E7A2D2AAD204E79FD291
:10055C00A7D20FE69CD2A4D203E699D2A1D20BE685
:10056C0096D29ED208EA8CD29BD20F91002F8FD2BA
:10057C0097D20FEF08B902E0016004BBC3D2002789
:10058C0008B904BBBFD20FEF08B902E0016004BB8D
:10059C00B9D2002708B904BBB5D20FEF08B902E0F5
:1005AC00016004BBAFD2002708B904BBABD200C0BA
:1005BC0001E066D275D200E863D272D203E567D24D
:1005CC006FD205E664D26CD20CE661D269D205E634
:1005DC005ED266D203E65BD263D204E758D260D215
:1005EC0000E255D25DD209E652D25AD204E74FD27C
:1005FC0057D205E64CD254D20DE649D251D282D212
:10060C004FCE0F93222720936E0001E039D248D2AF
:10061C0000E836D245D209E43AD242D20EE637D2BD
:10062C003FD203E734D23CD205E631D239D202E7CD
:10063C002ED236D204E72BD233D200E228D230D2DB
:10064C0003E625D22DD20FE622D22AD209E61FD2FA
:10065C0027D20EE61CD224D203E719D221D200E213
:10066C0016D21ED203E213D21BD20F91602F0F931E
:10067C00062F0DD215D208EA03D212D200C00F9168
:10068C0069D168810F938827772778B908EAF8D160
:10069C0007D2062F005D002FFAD102D20F936F9371
:1006AC003FEE330F330F30930B010FEF0A95F1F739
:1006BC00009109010F700F3041F021E0220F220F41
:1006CC00220F602F622341F100C06F910F910091B6
:1006DC0006010170003011F700C0009106010F9364
:1006EC006F933FEE330F330F30930B010FEF0A95DF
:1006FC00F1F7009109010F700F3041F021E0220F4A
:10070C00220F220F602F622339F000C06F910F91DE
:10071C000170013011F711C0803071F08A950FEF24
:10072C000093990000939800E6D10027009399005C
:10073C0000939800E0D1F0CF3BCF0F936F933FEE37
:10074C00330F330F30930B010FEF0A95F1F7009134
:10075C0009010F700F3041F021E0220F220F220F00
:10076C00602F6223C9F200C06F910F9100910601B6
:10077C000170003011F783956A95062F005D770F95
:10078C0071600F9378B908EA7BD18AD10F91002F51
:10079C007ED186D1603009F081CF0FEF0DB907B94A
:1007AC0001E06ED17DD104E472D17AD105E66FD12E
:1007BC0077D10CE66CD174D109E669D171D106E719
:1007CC0066D16ED105E663D16BD102E760D168D1F9
:1007DC0009E65DD165D10EE65AD162D107E657D153
:1007EC005FD100E254D15CD109E451D159D104E775
:1007FC004ED156D105E64BD153D10DE648D150D14F
:10080C006F9160530ED00FEF0093990000939800F6
:10081C007FD17ED17DD10027009399000093980061
:10082C00C7CE613089F06230A9F06330C9F0643012
:10083C00E9F0653009F1663029F1673049F168302B
:10084C0069F1693089F10895E0E0F2E000810A95E0
:10085C0000830895E2E0F2E000810A950083089598
:10086C00E4E0F2E000810A9500830895E6E0F2E00E
:10087C0000810A9500830895E8E0F2E000810A9572
:10088C0000830895EAE0F2E000810A950083089560
:10089C00ECE0F2E000810A9500830895EEE0F2E0CE
:1008AC0000810A9500830895E0E1F2E000810A9549
:1008BC000083089501E0E4D0F3D001E4E8D0F0D057
:1008CC0004E6E5D0EDD00DE6E2D0EAD009E6DFD0C3
:1008DC00E7D00EE6DCD0E4D000E2D9D0E1D00DE6D2
:1008EC00D6D0DED00FE6D3D0DBD004E6D0D0D8D033
:1008FC0005E6CDD0D5D000E2CAD0D2D001E3C7D026
:10090C00CFD008EABDD0CCD00F93E0E0F2E000816C
:10091C000F936F936627003021F0660F61600A9584
:10092C00FACF68B96F910F91005D002FB0D0B8D09D
:10093C0006EBA6D0B5D004E2AAD0B2D0E1E0F2E04A
:10094C000081005D002FA3D0ABD00F9181E0B1E00E
:10095C0091E0A6CC0F930053013079F0023099F05E
:10096C000330B9F00430D9F00530F9F0063019F144
:10097C00073039F1083059F130C0E0E0F2E0C1E065
:10098C00D2E00F910895E2E0F2E0C3E0D2E00F91E3
:10099C000895E4E0F2E0C5E0D2E00F910895E6E0BE
:1009AC00F2E0C7E0D2E00F910895E8E0F2E0C9E090
:1009BC00D2E00F910895EAE0F2E0CBE0D2E00F91A3
:1009CC000895ECE0F2E0CDE0D2E00F910895EEE076
:1009DC00F2E0CFE0D2E00F910895E0E1F2E0C1E166
:1009EC00D2E00F91089581D00F93B4DF01E048D08D
:1009FC0057D001E44CD054D004E649D051D00DE688
:100A0C0046D04ED009E643D04BD00EE640D048D06D
:100A1C0000E23DD045D00DE63AD042D00FE637D0BB
:100A2C003FD004E634D03CD005E631D039D000E2DA
:100A3C002ED036D00F91802F8053002F28D030D05D
:100A4C0008EA1ED02DD000810F936F9366270030DB
:100A5C0021F0660F61600A95FACF68B96F910F911A
:100A6C00005D002F14D01CD006EB0AD019D004E284
:100A7C000ED016D00881005D002F09D011D008953A
:100A8C0001BB1FD0169A1DD016981BD0089501BB20
:100A9C00179A17D0169A15D0169813D01798089540
:100AAC000F93002700BB01BB159A0BD0169A09D0E7
:100ABC000FB1169807FDF9CF15980FEF00BB0F91EA
:100ACC0008958F939F939FE08CE90197F1F79F9185
:100ADC008F910895F6DFF5DFF4DFF3DFF2DF089591
:100AEC00F9DFF8DFF7DFF6DF0895FADFF9DFF8DF7B
:100AFC00F7DFF6DF0895F9DFF8DFF2DFF1DFEADF89
:100B0C00E9DF0895F2DFF1DFF0DFEFDFEEDF0895CC
:060B1C00F9DFF8DF089587
:00000001FF
