:020000020000FC
:0C0000000C9433000C9432000C9432007D
:10005C000C942A010C94320018951127222733276F
:10006C0044275527662760930701D2E0C0E001E0E2
:10007C000883D2E0C1E002E00883D2E0C2E003E0F2
:10008C000883D2E0C3E004E00883D2E0C4E005E0DA
:10009C000883D2E0C5E006E00883D2E0C6E007E0C2
:1000AC000883D2E0C7E008E00883D2E0C8E009E0AA
:1000BC0008830FEF07B90FEF0DBF01E20EBF0FEF73
:1000CC0000BB01B9002701BB02B908E331D140D113
:1000DC0059D108E32DD13CD14CD108E329D138D1E9
:1000EC0008E326D135D108E023D132D101E020D16B
:1000FC002FD106E01DD12CD10EE01AD129D100E868
:10010C0017D126D120E024BD25E025BD21E0209388
:10011C006E0000EF00930A01789402E310D118D11D
:10012C0001E30DD115D102E30AD112D101E307D1BC
:10013C000FD100E204D10CD101E301D109D107E3C5
:10014C00FED006D103E7FBD003D101E3F8D000D1F8
:10015C0000E2F5D0FDD000E2F2D0FAD000E2EFD010
:10016C00F7D005E4ECD0F4D004E3E9D0F1D008EA00
:10017C00DFD0EED006E5E3D0EBD005E6E0D0E8D05A
:10018C000EE6DDD0E5D004E6DAD0E2D009E6D7D031
:10019C00DFD00EE6D4D0DCD007E6D1D0D9D000E247
:1001AC00CED0D6D00DE4CBD0D3D001E6C8D0D0D0B1
:1001BC0003E6C5D0CDD008E6C2D0CAD009E6BFD080
:1001CC00C7D00EE6BCD0C4D005E6B9D0C1D001C0B2
:1001DC00FFCF3FEE55275430E1F330930B010FEF77
:1001EC000A95F1F7009109010F700F3059F021E0D9
:1001FC004427443039F0602F622349F04395220F95
:10020C000C94FF00330F339553950C94F10053303D
:10021C0049F0433059F0042F000F040F050F0F5C09
:10022C000C94600102E3040F0C942701503029F068
:10023C00513031F003E20C9427010AE20C942701AF
:10024C0000E308B90C94EF000FB70F931395103C13
:10025C0019F00F910FBF18951127222720936E00CC
:10026C0001E066D075D000E863D072D003E567D0AA
:10027C006FD005E664D06CD00CE661D069D005E691
:10028C005ED066D003E65BD063D004E758D060D074
:10029C0000E255D05DD009E652D05AD004E74FD0D9
:1002AC0057D005E64CD054D00DE649D051D00F9123
:1002BC000FBF18950F93222720936E0001E038D0C2
:1002CC0047D000E835D044D009E439D041D00EE60F
:1002DC0036D03ED003E733D03BD005E630D038D013
:1002EC0002E72DD035D004E72AD032D000E227D057
:1002FC002FD003E624D02CD00FE621D029D009E64C
:10030C001ED026D00EE61BD023D003E718D020D069
:10031C0000E215D01DD003E212D01AD00F91602F3D
:10032C00062F0DD015D00091060108B931D051CF50
:10033C0001BB1FD0169A1DD016981BD0089501BB77
:10034C00179A17D0169A15D0169813D01798089597
:10035C000F93002700BB01BB159A0BD0169A09D03E
:10036C000FB1169807FDF9CF15980FEF00BB0F9141
:10037C0008958F939F939FE08CE90197F1F79F91DC
:10038C008F910895F6DFF5DFF4DFF3DFF2DF0895E8
:0A039C00F9DFF8DFF7DFF6DF089560
:00000001FF
