:020000020000FC
:0C0000000C9433000C9432000C9432007D
:10005C000C942A010C94320018951127222733276F
:10006C0044275527662760930701D2E0C0E001E0E2
:10007C000883D2E0C1E002E00883D2E0C2E003E0F2
:10008C000883D2E0C3E004E00883D2E0C4E005E0DA
:10009C000883D2E0C5E006E00883D2E0C6E007E0C2
:1000AC000883D2E0C7E008E00883D2E0C8E009E0AA
:1000BC0008830FEF07B90FEF0DBF01E20EBF0FEF73
:1000CC0000BB01B9002701BB02B908E30AD319D35D
:1000DC0032D308E306D315D325D308E302D311D3C7
:1000EC0008E3FFD20ED308E0FCD20BD301E0F9D227
:1000FC0008D306E0F6D205D30EE0F3D202D300E823
:10010C00F0D2FFD220E024BD25E025BD21E02093D4
:10011C006E0000EF00930A01789402E3E9D2F1D269
:10012C0001E3E6D2EED202E3E3D2EBD201E3E0D27A
:10013C00E8D200E2DDD2E5D201E3DAD2E2D207E383
:10014C00D7D2DFD203E7D4D2DCD201E3D1D2D9D2D9
:10015C0000E2CED2D6D200E2CBD2D3D200E2C8D2C9
:10016C00D0D205E4C5D2CDD204E3C2D2CAD208EAB9
:10017C00B8D2C7D206E5BCD2C4D205E6B9D2C1D238
:10018C000EE6B6D2BED204E6B3D2BBD209E6B0D2EA
:10019C00B8D20EE6ADD2B5D207E6AAD2B2D200E200
:1001AC00A7D2AFD20DE4A4D2ACD201E6A1D2A9D28F
:1001BC0003E69ED2A6D208E69BD2A3D209E698D239
:1001CC00A0D20EE695D29DD205E692D29AD201C06B
:1001DC00FFCF3FEE55275430E1F330930B010FEF77
:1001EC000A95F1F7009109010F700F3059F021E0D9
:1001FC004427443039F0602F622349F04395220F95
:10020C000C94FF00330F339553950C94F10053303D
:10021C0049F0433059F0042F000F040F050F0F5C09
:10022C000C94600102E3040F0C942701503029F068
:10023C00513031F003E20C9427010AE20C942701AF
:10024C0000E308B90C94EF000FB70F931395103C13
:10025C0019F00F910FBF18951127222720936E00CC
:10026C0001E03FD24ED200E83CD24BD203E540D263
:10027C0048D205E63DD245D20CE63AD242D205E64A
:10028C0037D23FD203E634D23CD204E731D239D252
:10029C0000E22ED236D209E62BD233D204E728D292
:1002AC0030D205E625D22DD20DE622D22AD20F91DC
:1002BC000FBF18950F930053013081F00230A9F055
:1002CC000330D1F00430F9F0053021F1063049F15A
:1002DC00073071F1083099F10930C1F1E0E0F2E03A
:1002EC0060810F916030C9F1A3C0E1E0F2E0608160
:1002FC000F91603091F19CC0E2E0F2E060810F91CF
:10030C00603059F195C0E3E0F2E060810F9160300C
:10031C0021F18EC0E4E0F2E060810F916030E9F0F1
:10032C0087C0E5E0F2E060810F916030B1F080C0F1
:10033C00E6E0F2E060810F91603079F079C0E7E09F
:10034C00F2E060810F91603041F072C0E8E0F2E0C1
:10035C0060810F91603009F06BC00F9301E0C1D147
:10036C00D0D10FE4C5D1CDD105E7C2D1CAD104E7B4
:10037C00BFD1C7D100E2BCD1C4D10FE6B9D1C1D134
:10038C0006E6B6D1BED100E2B3D1BBD103E7B0D102
:10039C00B8D104E7ADD1B5D10FE6AAD1B2D103E6FD
:1003AC00A7D1AFD10BE6A4D1ACD108EA9AD1A9D18F
:1003BC000F91002F9DD1A5D10FEF08B9D4D10027F3
:1003CC0008B9D1D10FEF08B9CED1002708B9CBD1DC
:1003DC000FEF08B9C8D1002708B9C5D100C001E09A
:1003EC0080D18FD100E87DD18CD103E581D189D129
:1003FC0005E67ED186D10CE67BD183D105E678D19A
:10040C0080D103E675D17DD104E772D17AD100E2B7
:10041C006FD177D109E66CD174D104E769D171D170
:10042C0005E666D16ED10DE663D16BD19CD1D1CEF0
:10043C000F93222720936E0001E053D162D100E884
:10044C0050D15FD109E454D15CD10EE651D159D1D0
:10045C0003E74ED156D105E64BD153D102E748D133
:10046C0050D104E745D14DD100E242D14AD103E647
:10047C003FD147D10FE63CD144D109E639D141D126
:10048C000EE636D13ED103E733D13BD100E230D179
:10049C0038D103E22DD135D10F91602F0F93062F58
:1004AC0027D12FD108EA1DD12CD100C0882762E0BA
:1004BC00772778B908EA15D124D1062F005D002FD3
:1004CC0017D11FD10F933FEE330F330F30930B0126
:1004DC000FEF0A95F1F7009109010F700F3041F001
:1004EC0021E0220F220F220F602F622329F100C07E
:1004FC000F91009106010170003021F700C00091AE
:10050C0006010F933FEE330F330F30930B010FEFB8
:10051C000A95F1F7009109010F700F3041F021E0BD
:10052C00220F220F220F602F622331F000C00F9197
:10053C000170013021F711C0803071F08A950FEFF6
:10054C00009399000093980007D10027009399001D
:10055C000093980001D1F0CF42CF0F933FEE330FB1
:10056C00330F30930B010FEF0A95F1F7009109014E
:10057C000F700F3041F021E0220F220F220F602F5D
:10058C006223D1F200C00F9100910601017000307E
:10059C0021F783956A95062F005D770F71600F9395
:1005AC0078B908EA9ED0ADD00F91002FA1D0A9D078
:1005BC00603009F087CF0FEF0DB907B901E091D08A
:1005CC00A0D004E495D09DD005E692D09AD00CE64C
:1005DC008FD097D009E68CD094D006E789D091D0F3
:1005EC0005E686D08ED002E783D08BD009E680D08A
:1005FC0088D00EE67DD085D007E67AD082D000E296
:10060C0077D07FD009E474D07CD004E771D079D056
:10061C0005E66ED076D00DE66BD073D06F9160533B
:10062C0014D00FEF009399000093980001E0009311
:10063C00910003EA009390009CD09BD09AD00027A5
:10064C000093990000939800CACE613089F0623013
:10065C00B1F06330D9F0643001F1653021F16630CE
:10066C0041F1673061F1683081F16930A1F1089591
:10067C00E0E0F2E0009100020A9500830895E1E0C9
:10068C00F2E0009101020A9500830895E2E0F2E0A5
:10069C00009102020A9500830895E3E0F2E00081E4
:1006AC000A9500830895E4E0F2E000810A95008346
:1006BC000895E5E0F2E000810A9500830895E6E0F4
:1006CC00F2E000810A9500830895E7E0F2E00081F2
:1006DC000A9500830895E8E0F2E000810A95008312
:1006EC00089501BB1FD0169A1DD016981BD00895E3
:1006FC0001BB179A17D0169A15D0169813D01798C5
:10070C0008950F93002700BB01BB159A0BD0169AC6
:10071C0009D00FB1169807FDF9CF15980FEF00BB54
:10072C000F9108958F939F939FE08CE90197F1F7B8
:10073C009F918F910895F6DFF5DFF4DFF3DFF2DFA1
:10074C000895F9DFF8DFF7DFF6DF0895FADFF9DF58
:10075C00F8DFF7DFF6DF0895F9DFF8DFF2DFF1DF1E
:10076C00EADFE9DF0895F2DFF1DFF0DFEFDFEEDF44
:08077C000895F9DFF8DF08958C
:00000001FF
