:020000020000FC
:0C0000000C9434000C9432000C9432007C
:040050000C947C018F
:10005C000C9474010C9432001895189511272227D2
:10006C0033274427552766279927AA27609307012A
:10007C00D2E0C0E001E00883D2E0C1E001E00883F7
:10008C00D2E0C2E002E00883D2E0C3E002E00883E1
:10009C00D2E0C4E003E00883D2E0C5E001E00883CD
:1000AC00D2E0C6E004E00883D2E0C7E002E00883B7
:1000BC00D2E0C8E005E00883D2E0C9E001E00883A3
:1000CC00D2E0CAE006E00883D2E0CBE002E008838D
:1000DC00D2E0CCE007E00883D2E0CDE001E0088379
:1000EC00D2E0CEE008E00883D2E0CFE002E0088363
:1000FC00D2E0C0E109E00883D2E0C1E101E008836D
:10010C000027009399000093980001E00093910060
:10011C0003EA009390000FEF07B90DB90FEF0DBF75
:10012C0001E20EBF0FEF00BB01B9002701BB02B902
:10013C0008E39AD3A9D3C2D308E396D3A5D3B5D3F6
:10014C0008E392D3A1D308E38FD39ED308E08CD3DA
:10015C009BD301E089D398D306E086D395D30EE0E8
:10016C0083D392D300E880D38FD320E024BD25E045
:10017C0025BD21E020936E0020E02093800023E039
:10018C0020938100222720936F0000EF00930A0137
:10019C00789402E370D378D301E36DD375D302E383
:1001AC006AD372D301E367D36FD300E264D36CD309
:1001BC0001E361D369D307E35ED366D303E75BD373
:1001CC0063D301E358D360D300E255D35DD300E28F
:1001DC0052D35AD300E24FD357D305E44CD354D364
:1001EC0004E349D351D308EA3FD34ED306E543D3B6
:1001FC004BD305E640D348D30EE63DD345D304E6B6
:10020C003AD342D309E637D33FD30EE634D33CD3AB
:10021C0007E631D339D300E22ED336D30DE42BD3FA
:10022C0033D301E628D330D303E625D32DD308E608
:10023C0022D32AD309E61FD327D30EE61CD324D30B
:10024C0005E619D321D301C0FFCF3FEE552754301B
:10025C00E1F330930B010FEF0A95F1F700910901CF
:10026C000F700F3059F021E04427443039F0602FE3
:10027C00622349F04395220F0C943B01330F3395C5
:10028C0053950C942D01533049F0433059F0042F01
:10029C00000F040F050F0F5C0C94E30102E3040F35
:1002AC000C946A01503029F0513069F003E20C943F
:1002BC006A01913021F091E071E070936F00A130F0
:1002CC0031F00C942B0100E308B90C942B01772727
:1002DC0070936F009927AA270C94F8030FB70F930C
:1002EC001395103CE1F10F910FBF18953F932F938D
:1002FC000F936F930FB70F9313953FEE30930B0142
:10030C000FEF0A95F1F7009109010F700F30D1F042
:10031C0021E0220F220F220F602F622309F012C05E
:10032C0013950AEA08B9193130F000EF08B9A1E0C9
:10033C00772770936F000F910FBF6F910F912F91D3
:10034C003F911895772770936F0099270FEF08B995
:10035C000F910FBF6F910F912F913F91189511270E
:10036C00222720936E0001E07FD28ED200E87CD24F
:10037C008BD203E580D288D205E67DD285D20CE6FD
:10038C007AD282D205E677D27FD203E674D27CD2BF
:10039C0004E771D279D200E26ED276D209E66BD242
:1003AC0073D204E768D270D205E665D26DD20DE641
:1003BC0062D26AD20F910FBF18950F930053013080
:1003CC0081F00230A9F00330D1F00430F9F005309F
:1003DC0021F1063049F1073071F1083099F10930FB
:1003EC00C1F1E0E0F2E060810F916030C9F1A3C08F
:1003FC00E2E0F2E060810F91603091F19CC0E4E0AA
:10040C00F2E060810F91603059F195C0E6E0F2E0C6
:10041C0060810F91603021F18EC0E8E0F2E06081E4
:10042C000F916030E9F087C0EAE0F2E060810F9153
:10043C006030B1F080C0ECE0F2E060810F91603090
:10044C0079F079C0EEE0F2E060810F91603041F01C
:10045C0072C0E0E1F2E060810F91603009F06BC096
:10046C000F9301E001D210D20FE405D20DD205E7B3
:10047C0002D20AD204E7FFD107D200E2FCD104D2A7
:10048C000FE6F9D101D206E6F6D1FED100E2F3D1A6
:10049C00FBD103E7F0D1F8D104E7EDD1F5D10FE6AC
:1004AC00EAD1F2D103E6E7D1EFD10BE6E4D1ECD1FE
:1004BC0008EADAD1E9D10F91002FDDD1E5D10FEFA8
:1004CC0008B914D2002708B911D20FEF08B90ED20F
:1004DC00002708B90BD20FEF08B908D2002708B9CA
:1004EC0005D200C001E0C0D1CFD100E8BDD1CCD144
:1004FC0003E5C1D1C9D105E6BED1C6D10CE6BBD14D
:10050C00C3D105E6B8D1C0D103E6B5D1BDD104E75E
:10051C00B2D1BAD100E2AFD1B7D109E6ACD1B4D1E6
:10052C0004E7A9D1B1D105E6A6D1AED10DE6A3D190
:10053C00ABD1DCD18ACE0F93222720936E0001E041
:10054C0093D1A2D100E890D19FD109E494D19CD150
:10055C000EE691D199D103E78ED196D105E68BD1D8
:10056C0093D102E788D190D104E785D18DD100E2F7
:10057C0082D18AD103E67FD187D10FE67CD184D199
:10058C0009E679D181D10EE676D17ED103E773D11C
:10059C007BD100E270D178D103E26DD175D10F918E
:1005AC00602F0F93062F67D16FD108EA5DD16CD104
:1005BC0000C0882762E0772778B908EA55D164D162
:1005CC00062F005D002F57D15FD10F936F933FEE35
:1005DC00330F330F30930B010FEF0A95F1F70091A6
:1005EC0009010F700F3041F021E0220F220F220F72
:1005FC00602F622341F100C06F910F9100910601B1
:10060C000170003011F700C0009106010F936F9339
:10061C003FEE330F330F30930B010FEF0A95F1F7C9
:10062C00009109010F700F3041F021E0220F220FD1
:10063C00220F602F622339F000C06F910F9101706F
:10064C00013011F711C0803071F08A950FEF0093D3
:10065C0099000093980043D10027009399000093D0
:10066C0098003DD1F0CF3ECF0F936F933FEE330FF9
:10067C00330F30930B010FEF0A95F1F7009109013D
:10068C000F700F3041F021E0220F220F220F602F4C
:10069C006223C9F200C06F910F91009106010170A5
:1006AC00003011F783956A95062F005D770F716006
:1006BC000F9378B908EAD8D0E7D00F91002FDBD090
:1006CC00E3D0603009F081CF0FEF0DB907B901E02D
:1006DC00CBD0DAD004E4CFD0D7D005E6CCD0D4D070
:1006EC000CE6C9D0D1D009E6C6D0CED006E7C3D02F
:1006FC00CBD005E6C0D0C8D002E7BDD0C5D009E646
:10070C00BAD0C2D00EE6B7D0BFD007E6B4D0BCD0BA
:10071C0000E2B1D0B9D009E4AED0B6D004E7ABD08A
:10072C00B3D005E6A8D0B0D00DE6A5D0ADD06F9172
:10073C0060530CD00FEF0093990000939800DCD01D
:10074C0000270093990000939800CCCE613089F07B
:10075C006230B1F06330D9F0643001F1653021F1D1
:10076C00663041F1673061F1683081F16930A1F197
:10077C000895E0E0F2E0009100020A9500830895EC
:10078C00E2E0F2E0009101020A9500830895E4E0B2
:10079C00F2E0009102020A9500830895E6E0F2E08F
:1007AC0000810A9500830895E8E0F2E000810A9543
:1007BC0000830895EAE0F2E000810A950083089531
:1007CC00ECE0F2E000810A9500830895EEE0F2E09F
:1007DC0000810A9500830895E0E1F2E000810A951A
:1007EC000083089501E040D04FD001E444D04CD0B8
:1007FC0004E641D049D00DE63ED046D009E63BD0C8
:10080C0043D00EE638D040D000E235D03DD00DE6D6
:10081C0032D03AD00FE62FD037D004E62CD034D0DB
:10082C0005E629D031D000E226D02ED001E323D02A
:10083C002BD008EA19D028D00F93E0E0F2E0008129
:10084C00002F19D021D008B906EB0ED01DD004E230
:10085C0012D01AD0E1E0F2E00081002F0CD014D0BD
:10086C000F9100C00C942B0101BB1FD0169A1DD008
:10087C0016981BD0089501BB179A17D0169A15D04D
:10088C00169813D0179808950F93002700BB01BB3F
:10089C00159A0BD0169A09D00FB1169807FDF9CFFF
:1008AC0015980FEF00BB0F9108958F939F939FE0C6
:1008BC008CE90197F1F79F918F910895F6DFF5DFA1
:1008CC00F4DFF3DFF2DF0895F9DFF8DFF7DFF6DFAF
:1008DC000895FADFF9DFF8DFF7DFF6DF0895F9DFC7
:1008EC00F8DFF2DFF1DFEADFE9DF0895F2DFF1DFB5
:0E08FC00F0DFEFDFEEDF0895F9DFF8DF08959B
:00000001FF
