:020000020000FC
:0C0000000C9434000C9432000C9432007C
:040050000C947F018C
:10005C000C9477010C9432001895189511272227CF
:10006C0033274427552766279927AA27BB27609350
:10007C000701D2E0C0E001E00883D2E0C1E001E07A
:10008C000883D2E0C2E002E00883D2E0C3E002E0E1
:10009C000883D2E0C4E003E00883D2E0C5E001E0CD
:1000AC000883D2E0C6E004E00883D2E0C7E002E0B7
:1000BC000883D2E0C8E005E00883D2E0C9E001E0A3
:1000CC000883D2E0CAE006E00883D2E0CBE002E08D
:1000DC000883D2E0CCE007E00883D2E0CDE001E079
:1000EC000883D2E0CEE008E00883D2E0CFE002E063
:1000FC000883D2E0C0E109E00883D2E0C1E101E06D
:10010C0008830027009399000093980001E0009366
:10011C00910003EA009390000FEF07B90DB90FEFB0
:10012C000DBF01E20EBF0FEF00BB01B9002701BBF1
:10013C0002B908E337D446D45FD408E333D442D4AD
:10014C0052D408E32FD43ED408E32CD43BD408E09B
:10015C0029D438D401E026D435D406E023D432D4C3
:10016C000EE020D42FD400E81DD42CD420E024BDE4
:10017C0025E025BD21E020936E0020E02093800037
:10018C0023E020938100222720936F0000EF00933F
:10019C000A01789402E30DD415D401E30AD412D4E5
:1001AC0002E307D40FD401E304D40CD400E201D44D
:1001BC0009D401E3FED306D407E3FBD303D403E74E
:1001CC00F8D300D401E3F5D3FDD300E2F2D3FAD394
:1001DC0000E2EFD3F7D300E2ECD3F4D305E4E9D398
:1001EC00F1D304E3E6D3EED308EADCD3EBD306E594
:1001FC00E0D3E8D305E6DDD3E5D30EE6DAD3E2D3DC
:10020C0004E6D7D3DFD309E6D4D3DCD30EE6D1D3BF
:10021C00D9D307E6CED3D6D300E2CBD3D3D30DE4D8
:10022C00C8D3D0D301E6C5D3CDD303E6C2D3CAD34A
:10023C0008E6BFD3C7D309E6BCD3C4D30EE6B9D303
:10024C00C1D305E6B6D3BED301C0FFCF3FEE5527D1
:10025C005430E1F330930B010FEF0A95F1F7009155
:10026C0009010F700F3059F021E04427443039F068
:10027C00602F622349F04395220F0C943C01330FFD
:10028C00339553950C942E01533049F0433059F06B
:10029C00042F000F040F050F0F5C0C94E60102E312
:1002AC00040F0C946D01503039F0513079F003E2A9
:1002BC00B13069F4BB2719C1913021F091E071E0A4
:1002CC0070936F00A13031F00C942C0100E308B94D
:1002DC000C942C01772770936F009927AA270C9404
:1002EC00FD030FB70F931395103CE1F10F910FBF66
:1002FC0018953F932F930F936F930FB70F931395FD
:10030C003FEE30930B010FEF0A95F1F700910901C5
:10031C000F700F30D1F021E0220F220F220F602F2F
:10032C00622309F012C013950AEA08B9193130F0AA
:10033C0000EF08B9A1E0772770936F000F910FBF02
:10034C006F910F912F913F911895772770936F00B4
:10035C0099270FEF08B90F910FBF6F910F912F9144
:10036C003F9118951127222720936E0001E01AD394
:10037C0029D300E817D326D303E51BD323D305E6F3
:10038C0018D320D30CE615D31DD305E612D31AD3FC
:10039C0003E60FD317D304E70CD314D300E209D32D
:1003AC0011D309E606D30ED304E703D30BD305E62A
:1003BC0000D308D30DE6FDD205D30F910FBF1895CE
:1003CC000F930053013081F00230A9F00330D1F0CB
:1003DC000430F9F0053021F1063049F1073071F1A4
:1003EC00083099F10930C1F1E0E0F2E060810F9141
:1003FC006030C9F1A3C0E2E0F2E060810F9160309F
:10040C0091F19CC0E4E0F2E060810F91603059F111
:10041C0095C0E6E0F2E060810F91603021F18EC072
:10042C00E8E0F2E060810F916030E9F087C0EAE02B
:10043C00F2E060810F916030B1F080C0ECE0F2E04E
:10044C0060810F91603079F079C0EEE0F2E060816C
:10045C000F91603041F072C0E0E1F2E060810F91E9
:10046C00603009F06BC00F9301E09CD2ABD20FE46B
:10047C00A0D2A8D205E79DD2A5D204E79AD2A2D2E7
:10048C0000E297D29FD20FE694D29CD206E691D28C
:10049C0099D200E28ED296D203E78BD293D204E7A4
:1004AC0088D290D20FE685D28DD203E682D28AD240
:1004BC000BE67FD287D208EA75D284D20F91002F37
:1004CC0078D280D20FEF08B9AFD2002708B9ACD2DE
:1004DC000FEF08B9A9D2002708B9A6D20FEF08B9B7
:1004EC00A3D2002708B9A0D200C001E05BD26AD227
:1004FC0000E858D267D203E55CD264D205E659D243
:10050C0061D20CE656D25ED205E653D25BD203E63C
:10051C0050D258D204E74DD255D200E24AD252D230
:10052C0009E647D24FD204E744D24CD205E641D279
:10053C0049D20DE63ED246D277D288CE0F932227EF
:10054C0020936E0001E02ED23DD200E82BD23AD29D
:10055C0009E42FD237D20EE62CD234D203E729D2BB
:10056C0031D205E626D22ED202E723D22BD204E7D3
:10057C0020D228D200E21DD225D203E61AD222D2F2
:10058C000FE617D21FD209E614D21CD20EE611D2F6
:10059C0019D203E70ED216D200E20BD213D203E229
:1005AC0008D210D20F91602F0F93062F02D20AD2CD
:1005BC0008EAF8D107D200C0882762E0772778B91B
:1005CC0008EAF0D1FFD1062F005D002FF2D1FAD14D
:1005DC000F936F933FEE330F330F30930B010FEFED
:1005EC000A95F1F7009109010F700F3041F021E0ED
:1005FC00220F220F220F602F622341F100C06F9156
:10060C000F91009106010170003011F700C00091AC
:10061C0006010F936F933FEE330F330F30930B01A3
:10062C000FEF0A95F1F7009109010F700F3041F0AF
:10063C0021E0220F220F220F602F622339F000C01D
:10064C006F910F910170013011F711C0803071F072
:10065C008A950FEF0093990000939800DED1002744
:10066C000093990000939800D8D1F0CF3ECF0F9310
:10067C006F933FEE330F330F30930B010FEF0A954F
:10068C00F1F7009109010F700F3041F021E0220FBA
:10069C00220F220F602F6223C9F200C06F910F91BD
:1006AC00009106010170003011F783956A95062FB1
:1006BC00005D770F71600F9378B908EA73D182D11E
:1006CC000F91002F76D17ED1603009F081CF0FEFE2
:1006DC000DB907B901E066D175D104E46AD172D1C4
:1006EC0005E667D16FD10CE664D16CD109E661D116
:1006FC0069D106E75ED166D105E65BD163D102E72D
:10070C0058D160D109E655D15DD10EE652D15AD1FE
:10071C0007E64FD157D100E24CD154D109E449D16D
:10072C0051D104E746D14ED105E643D14BD10DE66C
:10073C0040D148D16F9160530ED00FEF00939900C8
:10074C000093980077D176D175D10027009399004A
:10075C0000939800CACE613089F06230B1F06330FA
:10076C00D9F0643001F1653021F1663041F1673028
:10077C0061F1683081F16930A1F10895E0E0F2E0B7
:10078C00009100020A9500830895E2E0F2E00091E6
:10079C0001020A9500830895E4E0F2E00091020260
:1007AC000A9500830895E6E0F2E000810A95008343
:1007BC000895E8E0F2E000810A9500830895EAE0EC
:1007CC00F2E000810A9500830895ECE0F2E00081EC
:1007DC000A9500830895EEE0F2E000810A9500830B
:1007EC000895E0E1F2E000810A950083089501E0AC
:1007FC00D9D0E8D001E4DDD0E5D004E6DAD0E2D0FF
:10080C000DE6D7D0DFD009E6D4D0DCD00EE6D1D0BF
:10081C00D9D000E2CED0D6D00DE6CBD0D3D00FE6D7
:10082C00C8D0D0D004E6C5D0CDD005E6C2D0CAD051
:10083C0000E2BFD0C7D001E3BCD0C4D008EAB2D02C
:10084C00C1D00F93E0E0F2E00081005D002FB1D049
:10085C00B9D008B906EBA6D0B5D004E2AAD0B2D074
:10086C00E1E0F2E00081005D002FA3D0ABD00F914E
:10087C00B1E059C00F930053013079F00230A9F068
:10088C000330D9F0043009F1053039F1063069F143
:10089C00073099F10830C9F140C0E0E0F2E0C1E066
:1008AC00D2E001E008B90F913EC0E2E0F2E0C3E013
:1008BC00D2E003E008B90F9136C0E4E0F2E0C5E005
:1008CC00D2E007E008B90F912EC0E6E0F2E0C7E0F5
:1008DC00D2E00FE008B90F9126C0E8E0F2E0C9E0E1
:1008EC00D2E00FE108B90F911EC0EAE0F2E0CBE0D4
:1008FC00D2E00FE308B90F9116C0ECE0F2E0CDE0C6
:10090C00D2E00FE708B90F910EC0EEE0F2E0CFE0B5
:10091C00D2E00FEF08B90F9106C0E0E1F2E0C1E1BF
:10092C00D2E00F9100C001E03DD04CD001E441D0A9
:10093C0049D004E63ED046D00DE63BD043D009E684
:10094C0038D040D00EE635D03DD000E232D03AD08F
:10095C000DE62FD037D00FE62CD034D004E629D0BA
:10096C0031D005E626D02ED000E223D02BD0002F9C
:10097C0020D028D008EA16D025D00F936F93008191
:10098C00005D002F16D01ED006EB0CD01BD004E25D
:10099C0010D018D00881002F0CD014D06F910F916B
:1009AC000C942C0101BB1FD0169A1DD016981BD08D
:1009BC00089501BB179A17D0169A15D0169813D014
:1009CC00179808950F93002700BB01BB159A0BD005
:1009DC00169A09D00FB1169807FDF9CF15980FEF9D
:1009EC0000BB0F9108958F939F939FE08CE9019723
:1009FC00F1F79F918F910895F6DFF5DFF4DFF3DFC8
:100A0C00F2DF0895F9DFF8DFF7DFF6DF0895FADF9C
:100A1C00F9DFF8DFF7DFF6DF0895F9DFF8DFF2DF53
:100A2C00F1DFEADFE9DF0895F2DFF1DFF0DFEFDF7E
:0A0A3C00EEDF0895F9DFF8DF0895FA
:00000001FF
