:020000020000FC
:0C0000000C9433000C9432000C9432007D
:10005C000C9404010C943200189511272227332795
:10006C004427552766270FEF07B90FEF0DBF01E2A5
:10007C000EBF0FEF00BB01B9002701BB02B908E3AB
:10008C00F3D002D11BD108E3EFD0FED00ED108E3A0
:10009C00EBD0FAD008E3E8D0F7D008E0E5D0F4D004
:1000AC0001E0E2D0F1D006E0DFD0EED00EE0DCD003
:1000BC00EBD000E8D9D0E8D020E024BD25E025BD68
:1000CC0021E020936E0000EF00930A01789402E384
:1000DC00D2D0DAD001E3CFD0D7D002E3CCD0D4D079
:1000EC0001E3C9D0D1D000E2C6D0CED001E3C3D059
:1000FC00CBD007E3C0D0C8D003E7BDD0C5D001E357
:10010C00BAD0C2D000E2B7D0BFD000E2B4D0BCD0DD
:10011C0000E2B1D0B9D005E4AED0B6D004E3ABD098
:10012C00B3D008EAA1D0B0D006E5A5D0ADD005E695
:10013C00A2D0AAD00EE69FD0A7D004E69CD0A4D023
:10014C0009E699D0A1D00EE696D09ED007E693D0C2
:10015C009BD000E290D098D00DE48DD095D001E6E4
:10016C008AD092D003E687D08FD008E684D08CD08A
:10017C0009E681D089D00EE67ED086D005E67BD00C
:10018C0083D001C0FFCF3FEE55275430E1F33093BD
:10019C000B010FEF0A95F1F7009109010F700F3069
:1001AC0059F021E04427443039F0602F622349F0A4
:1001BC004395220F0C94D900330F339553950C941F
:1001CC00CB00533049F0433059F0042F000F040F8B
:1001DC00050F0F5C0C94010102E3040F0C94010158
:1001EC00503029F0513031F003E20C9401010AE255
:1001FC000C94010100E308B90C94C9000FB70F93DC
:10020C001395103C19F00F910FBF18951127222749
:10021C0020936E0001E028D037D000E825D034D0F0
:10022C0003E529D031D005E626D02ED00CE623D01C
:10023C002BD005E620D028D003E61DD025D004E72E
:10024C001AD022D000E217D01FD009E614D01CD04F
:10025C0004E711D019D005E60ED016D00DE60BD060
:10026C0013D00F910FBF189501BB1FD0169A1DD03C
:10027C0016981BD0089501BB179A17D0169A15D053
:10028C00169813D0179808950F93002700BB01BB45
:10029C00159A0BD0169A09D00FB1169807FDF9CF05
:1002AC0015980FEF00BB0F9108958F939F939FE0CC
:1002BC008CE90197F1F79F918F910895F6DFF5DFA7
:0802CC00F4DFF3DFF2DF089517
:00000001FF
