:020000020000FC
:0C0000000C9433000C9432000C9432007D
:10005C000C9435010C943200189511272227332764
:10006C0044275527662760930701D2E0C0E001E0E2
:10007C000883D2E0C1E002E00883D2E0C2E003E0F2
:10008C000883D2E0C3E004E00883D2E0C4E005E0DA
:10009C000883D2E0C5E006E00883D2E0C6E007E0C2
:1000AC000883D2E0C7E008E00883D2E0C8E009E0AA
:1000BC0008830027009399000093980001E00093B7
:1000CC00910003EA009390000FEF07B90FEF0DBFFB
:1000DC0001E20EBF0FEF00BB01B9002701BB02B953
:1000EC0008E304D313D32CD308E300D30FD31FD3CB
:1000FC0008E3FCD20BD308E3F9D208D308E0F6D21C
:10010C0005D301E0F3D202D306E0F0D2FFD20EE029
:10011C00EDD2FCD200E8EAD2F9D220E024BD25E0F1
:10012C0025BD21E020936E0000EF00930A01789426
:10013C0002E3E3D2EBD201E3E0D2E8D202E3DDD278
:10014C00E5D201E3DAD2E2D200E2D7D2DFD201E388
:10015C00D4D2DCD207E3D1D2D9D203E7CED2D6D2D5
:10016C0001E3CBD2D3D200E2C8D2D0D200E2C5D2C6
:10017C00CDD200E2C2D2CAD205E4BFD2C7D204E3C8
:10018C00BCD2C4D208EAB2D2C1D206E5B6D2BED233
:10019C0005E6B3D2BBD20EE6B0D2B8D204E6ADD2ED
:1001AC00B5D209E6AAD2B2D20EE6A7D2AFD207E6F2
:1001BC00A4D2ACD200E2A1D2A9D20DE49ED2A6D296
:1001CC0001E69BD2A3D203E698D2A0D208E695D240
:1001DC009DD209E692D29AD20EE68FD297D205E63C
:1001EC008CD294D201C0FFCF3FEE55275430E1F3AF
:1001FC0030930B010FEF0A95F1F7009109010F7085
:10020C000F3059F021E04427443039F0602F62233D
:10021C0049F04395220F0C940A01330F33955395F3
:10022C000C94FC00533049F0433059F0042F000F6C
:10023C00040F050F0F5C0C946B0102E3040F0C947C
:10024C003201503029F0513031F003E20C9432017C
:10025C000AE20C94320100E308B90C94FA000FB7CF
:10026C000F931395103C19F00F910FBF1895112790
:10027C00222720936E0001E039D248D200E836D212
:10028C0045D203E53AD242D205E637D23FD20CE64C
:10029C0034D23CD205E631D239D203E62ED236D254
:1002AC0004E72BD233D200E228D230D209E625D291
:1002BC002DD204E722D22AD205E61FD227D20DE690
:1002CC001CD224D20F910FBF18950F9300530130FD
:1002DC0081F00230A9F00330D1F00430F9F0053090
:1002EC0021F1063049F1073071F1083099F10930EC
:1002FC00C1F1E0E0F2E060810F916030C9F1A3C080
:10030C00E1E0F2E060810F91603091F19CC0E2E09D
:10031C00F2E060810F91603059F195C0E3E0F2E0BA
:10032C0060810F91603021F18EC0E4E0F2E06081D9
:10033C000F916030E9F087C0E5E0F2E060810F9149
:10034C006030B1F080C0E6E0F2E060810F91603087
:10035C0079F079C0E7E0F2E060810F91603041F014
:10036C0072C0E8E0F2E060810F91603009F06BC080
:10037C000F9301E0BBD1CAD10FE4BFD1C7D105E7C0
:10038C00BCD1C4D104E7B9D1C1D100E2B6D1BED140
:10039C000FE6B3D1BBD106E6B0D1B8D100E2ADD1F6
:1003AC00B5D103E7AAD1B2D104E7A7D1AFD10FE6FB
:1003BC00A4D1ACD103E6A1D1A9D10BE69ED1A6D193
:1003CC0008EA94D1A3D10F91002F97D19FD10FEFB1
:1003DC0008B9CED1002708B9CBD10FEF08B9C8D1D5
:1003EC00002708B9C5D10FEF08B9C2D1002708B949
:1003FC00BFD100C001E07AD189D100E877D186D194
:10040C0003E57BD183D105E678D180D10CE675D19B
:10041C007DD105E672D17AD103E66FD177D104E7AD
:10042C006CD174D100E269D171D109E666D16ED17B
:10043C0004E763D16BD105E660D168D10DE65DD1DF
:10044C0065D196D1D1CE0F93222720936E0001E077
:10045C004DD15CD100E84AD159D109E44ED156D1E5
:10046C000EE64BD153D103E748D150D105E645D127
:10047C004DD102E742D14AD104E73FD147D100E246
:10048C003CD144D103E639D141D10FE636D13ED12E
:10049C0009E633D13BD10EE630D138D103E72DD16B
:1004AC0035D100E22AD132D103E227D12FD10F91DD
:1004BC00602F0F93062F21D129D108EA17D126D10D
:1004CC0000C0882762E0772778B908EA0FD11ED1DF
:1004DC00062F005D002F11D119D10F933FEE330F72
:1004EC00330F30930B010FEF0A95F1F700910901CF
:1004FC000F700F3041F021E0220F220F220F602FDE
:10050C00622329F100C00F910091060101700030A7
:10051C0021F700C0009106010F933FEE330F330F0C
:10052C0030930B010FEF0A95F1F7009109010F7051
:10053C000F3041F021E0220F220F220F602F622397
:10054C0031F000C00F910170013021F711C08030E3
:10055C0071F08A950FEF009399000093980001D1E8
:10056C0000270093990000939800FBD0F0CF42CF66
:10057C000F933FEE330F330F30930B010FEF0A95B0
:10058C00F1F7009109010F700F3041F021E0220FBB
:10059C00220F220F602F6223D1F200C00F91009125
:1005AC0006010170003021F783956A95062F005DD6
:1005BC00770F71600F9378B908EA98D0A7D00F9194
:1005CC00002F9BD0A3D0603009F087CF0FEF0DB96F
:1005DC0007B901E08BD09AD004E48FD097D005E610
:1005EC008CD094D00CE689D091D009E686D08ED0F0
:1005FC0006E783D08BD005E680D088D002E77DD08B
:10060C0085D009E67AD082D00EE677D07FD007E687
:10061C0074D07CD000E271D079D009E46ED076D061
:10062C0004E76BD073D005E668D070D00DE665D0CA
:10063C006DD06F9160530ED00FEF00939900009323
:10064C0098009CD09BD09AD00027009399000093DF
:10065C009800D0CE613089F06230B1F06330D9F0BF
:10066C00643001F1653021F1663041F1673061F1A0
:10067C00683081F16930A1F10895E0E0F2E0009179
:10068C0000020A9500830895E1E0F2E00091010276
:10069C000A9500830895E2E0F2E0009102020A95C7
:1006AC0000830895E3E0F2E000810A950083089549
:1006BC00E4E0F2E000810A9500830895E5E0F2E0C1
:1006CC0000810A9500830895E6E0F2E000810A9526
:1006DC0000830895E7E0F2E000810A950083089515
:1006EC00E8E0F2E000810A950083089501BB1FD079
:1006FC00169A1DD016981BD0089501BB179A17D0C7
:10070C00169A15D0169813D0179808950F930027A2
:10071C0000BB01BB159A0BD0169A09D00FB11698D5
:10072C0007FDF9CF15980FEF00BB0F9108958F932C
:10073C009F939FE08CE90197F1F79F918F9108951A
:10074C00F6DFF5DFF4DFF3DFF2DF0895F9DFF8DF32
:10075C00F7DFF6DF0895FADFF9DFF8DFF7DFF6DF12
:10076C000895F9DFF8DFF2DFF1DFEADFE9DF089562
:10077C00F2DFF1DFF0DFEFDFEEDF0895F9DFF8DF16
:02078C000895CE
:00000001FF
