:020000020000FC
:0C0000000C945D000C9433000C9448003C
:040050000C94D90132
:10005C000C94D0010C94320018950F930FB70F939A
:10006C00B13061F4082F005D86D400810A3031F084
:10007C00039500835FD5082F005DC6D40F910FBF89
:10008C000F9118950F930FB70F93B13061F4082FA0
:10009C00005D71D40081003031F00A9500834AD59F
:1000AC00082F005DB1D40F910FBF0F911895112738
:1000BC00222733274427552766279927AA27BB27AA
:1000CC0060930701D2E0C0E001E00883D2E0C1E018
:1000DC0001E00883D2E0C2E002E00883D2E0C3E092
:1000EC0002E00883D2E0C4E003E00883D2E0C5E07C
:1000FC0001E00883D2E0C6E004E00883D2E0C7E068
:10010C0002E00883D2E0C8E005E00883D2E0C9E051
:10011C0001E00883D2E0CAE006E00883D2E0CBE03D
:10012C0002E00883D2E0CCE007E00883D2E0CDE027
:10013C0001E00883D2E0CEE008E00883D2E0CFE013
:10014C0002E00883D2E0C0E109E00883D2E0C1E11B
:10015C0001E008830027009399000093980001E0C8
:10016C000093910003EA009390000FEF07B90DB9CB
:10017C0003BB0FEF0DBF01E20EBF0FEF00BB01B9C8
:10018C00002701BB02B908E39AD4A9D4C2D408E36E
:10019C0096D4A5D4B5D408E392D4A1D408E38FD4D3
:1001AC009ED408E08CD49BD401E089D498D406E08A
:1001BC0086D495D40EE083D492D400E880D48FD426
:1001CC0020E024BD25E025BD21E020936E0020E039
:1001DC002093800023E020938100222720936F003E
:1001EC0000EF00930A01789402E370D478D401E311
:1001FC006DD475D402E36AD472D401E367D46FD49E
:10020C0000E264D46CD401E361D469D407E35ED416
:10021C0066D403E75BD463D401E358D460D400E222
:10022C0055D45DD400E252D45AD400E24FD457D402
:10023C0005E44CD454D404E349D451D408EA3FD453
:10024C004ED406E543D44BD405E640D448D40EE650
:10025C003DD445D404E63AD442D409E637D43FD44D
:10026C000EE634D43CD407E631D439D400E22ED493
:10027C0036D40DE42BD433D401E628D430D403E6A1
:10028C0025D42DD408E622D42AD409E61FD427D4A9
:10029C000EE61CD424D405E619D421D401C0FFCF1A
:1002AC003FEE55275430E1F330930B010FEF0A95D5
:1002BC00F1F7009109010F700F3059F021E044273C
:1002CC00443039F0602F622399F04395220F0C943F
:1002DC006601330F339553950C945801082F005D2C
:1002EC004AD300270083082F005D1ED48DD3D8CFAE
:1002FC00533059F0433071F1042F000F040F050FE8
:10030C000F5CB130D9F10C943D0202E3040FB13013
:10031C00C1F5403029F0413081F04230F9F2C0CFC4
:10032C00082F005D28D30881033059F10395088309
:10033C00082F005DF9D368D3B3CF082F005D1BD312
:10034C0008810130F1F00A950883082F005DECD389
:10035C005BD3A6CF503041F0513091F003E2B13075
:10036C0081F49927BB2724C1913021F091E071E0F1
:10037C0070936F00A13039F00C94560145D390CF97
:10038C0000E30C945601772770936F009927AA27E6
:10039C000C94630491E00FB70F931395103CC1F1CB
:1003AC000F910FBF18953F932F930F936F930FB728
:1003BC000F9313953FEE30930B010FEF0A95F1F766
:1003CC00009109010F700F30B9F021E0220F220FBC
:1003DC00220F602F622309F00FC01395193128F0FA
:1003EC00A1E0772770936F0011270F910FBF6F91CA
:1003FC000F912F913F911895772770936F00992744
:10040C0011270F910FBF6F910F912F913F9118955D
:10041C0011279927222720936E0001E050D35FD338
:10042C0000E84DD35CD303E551D359D305E64ED345
:10043C0056D30CE64BD353D305E648D350D303E63F
:10044C0045D34DD304E742D34AD300E23FD347D33D
:10045C0009E63CD344D304E739D341D305E636D37C
:10046C003ED30DE633D33BD30F910FBF18950F93AB
:10047C000053013081F00230A9F00330D1F0043088
:10048C00F9F0053021F1063049F1073071F10830EF
:10049C0099F10930C1F1E0E0F2E060810F91603038
:1004AC00C9F1B2C0E2E0F2E060810F91603091F1ED
:1004BC00ABC0E4E0F2E060810F91603059F1A4C070
:1004CC00E6E0F2E060810F91603021F19DC0E8E040
:1004DC00F2E060810F916030E9F096C0EAE0F2E062
:1004EC0060810F916030B1F08FC0ECE0F2E0608180
:1004FC000F91603079F088C0EEE0F2E060810F91EE
:10050C00603041F081C0E0E1F2E060810F91603039
:10051C0009F07AC00F9301E0D2D2E1D20FE4D6D227
:10052C00DED205E7D3D2DBD204E7D0D2D8D200E2B8
:10053C00CDD2D5D20FE6CAD2D2D206E6C7D2CFD20E
:10054C0000E2C4D2CCD203E7C1D2C9D204E7BED2F6
:10055C00C6D20FE6BBD2C3D203E6B8D2C0D20BE6EA
:10056C00B5D2BDD208EAABD2BAD20F91002FAED21F
:10057C00B6D20FEF08B902E0016004BBE2D200274B
:10058C0008B904BBDED20FEF08B902E0016004BB6E
:10059C00D8D2002708B904BBD4D20FEF08B902E0B7
:1005AC00016004BBCED2002708B904BBCAD200C07C
:1005BC00002708B904BB01E082D291D200E87FD2B7
:1005CC008ED203E583D28BD205E680D288D20CE69C
:1005DC007DD285D205E67AD282D203E677D27FD25B
:1005EC0004E774D27CD200E271D279D209E66ED2E1
:1005FC0076D204E76BD273D205E668D270D20DE6E0
:10060C0065D26DD29ED24CCE0F93222720936E00D2
:10061C0001E055D264D200E852D261D209E456D23C
:10062C005ED20EE653D25BD203E750D258D205E627
:10063C004DD255D202E74AD252D204E747D24FD21A
:10064C0000E244D24CD203E641D249D20FE63ED26C
:10065C0046D209E63BD243D20EE638D240D203E76B
:10066C0035D23DD200E232D23AD203E22FD237D287
:10067C000F91602F0F93062F29D231D208EA1FD287
:10068C002ED200C00F9177D168810F9388277727DE
:10069C0078B908EA14D223D2062F005D002F16D2A7
:1006AC001ED20F936F933FEE330F330F30930B012A
:1006BC000FEF0A95F1F7009109010F700F3041F01F
:1006CC0021E0220F220F220F602F622341F100C084
:1006DC006F910F91009106010170003011F700C06D
:1006EC00009106010F936F933FEE330F330F30934E
:1006FC000B010FEF0A95F1F7009109010F700F3004
:10070C0041F021E0220F220F220F602F622339F0DB
:10071C0000C06F910F910170013011F711C0803042
:10072C0071F08A950FEF009399000093980002D214
:10073C0000270093990000939800FCD1F0CF38CF9C
:10074C000F936F933FEE330F330F30930B010FEF7B
:10075C000A95F1F7009109010F700F3041F021E07B
:10076C00220F220F220F602F6223C9F200C06F915B
:10077C000F91009106010170003011F783956A9575
:10078C00062F005D770F71600F9378B908EA97D147
:10079C00A6D10F91002F9AD1A2D1603009F081CF50
:1007AC000FEF0DB907B901E08AD199D104E48ED1CC
:1007BC0096D105E68BD193D10CE688D190D109E680
:1007CC0085D18DD106E782D18AD105E67FD187D13B
:1007DC0002E77CD184D109E679D181D10EE676D1BC
:1007EC007ED107E673D17BD100E270D178D109E4D8
:1007FC006DD175D104E76AD172D105E667D16FD19D
:10080C000DE664D16CD16F9160530ED00FEF009355
:10081C009900009398009BD19AD199D1002700930D
:10082C00990000939800C4CE613089F06230A9F031
:10083C006330C9F06430E9F0653009F1663029F1B4
:10084C00673049F1683069F1693089F10895E0E069
:10085C00F2E000810A9500830895E2E0F2E0008165
:10086C000A9500830895E4E0F2E000810A95008384
:10087C000895E6E0F2E000810A9500830895E8E02F
:10088C00F2E000810A9500830895EAE0F2E000812D
:10089C000A9500830895ECE0F2E000810A9500834C
:1008AC000895EEE0F2E000810A9500830895E0E1FE
:1008BC00F2E000810A950083089501E000D10FD188
:1008CC0001E404D10CD104E601D109D10DE6FED02E
:1008DC0006D109E6FBD003D10EE6F8D000D100E238
:1008EC00F5D0FDD00DE6F2D0FAD00FE6EFD0F7D070
:1008FC0004E6ECD0F4D005E6E9D0F1D000E2E6D085
:10090C00EED001E3E3D0EBD008EAD9D0E8D00F93D6
:10091C00E0E0F2E000810F936F937F93662764BB56
:10092C000A3019F0093029F006C072E0716074BB0E
:10093C0002C071E074BB003021F0660F61600A9553
:10094C00FACF68B97F916F910F91005D002FBED0E7
:10095C00C6D006EBB4D0C3D004E2B8D0C0D0E1E02E
:10096C00F2E00081005D002FB1D0B9D00F9181E091
:10097C00B1E091E095CC0F930053013079F0023047
:10098C0099F00330B9F00430D9F00530F9F00630A5
:10099C0019F1073039F1083059F130C0E0E0F2E0DC
:1009AC00C1E0D2E00F910895E2E0F2E0C3E0D2E0C2
:1009BC000F910895E4E0F2E0C5E0D2E00F910895C4
:1009CC00E6E0F2E0C7E0D2E00F910895E8E0F2E053
:1009DC00C9E0D2E00F910895EAE0F2E0CBE0D2E07A
:1009EC000F910895ECE0F2E0CDE0D2E00F91089584
:1009FC00EEE0F2E0CFE0D2E00F910895E0E1F2E01A
:100A0C00C1E1D2E00F9108958FD00F93B4DF01E0D4
:100A1C0056D065D001E45AD062D004E657D05FD0EE
:100A2C000DE654D05CD009E651D059D00EE64ED02C
:100A3C0056D000E24BD053D00DE648D050D00FE644
:100A4C0045D04DD004E642D04AD005E63FD047D041
:100A5C0000E23CD044D00F91802F8053002F36D031
:100A6C003ED008EA2CD03BD000810F936F937F933C
:100A7C00662764BB0A3019F0093029F006C072E011
:100A8C00716074BB02C071E074BB003021F0660F62
:100A9C0061600A95FACF68B97F916F910F91005DF3
:100AAC00002F14D01CD006EB0AD019D004E20ED0C3
:100ABC0016D00881005D002F09D011D0089501BB1C
:100ACC001FD0169A1DD016981BD0089501BB179AEB
:100ADC0017D0169A15D0169813D0179808950F930F
:100AEC00002700BB01BB159A0BD0169A09D00FB189
:100AFC00169807FDF9CF15980FEF00BB0F910895CD
:100B0C008F939F939FE08CE90197F1F79F918F91C1
:100B1C000895F6DFF5DFF4DFF3DFF2DF0895F9DF98
:100B2C00F8DFF7DFF6DF0895FADFF9DFF8DFF7DF3C
:100B3C00F6DF0895F9DFF8DFF2DFF1DFEADFE9DF56
:100B4C000895F2DFF1DFF0DFEFDFEEDF0895F9DF7C
:040B5C00F8DF089521
:00000001FF
