:020000020000FC
:0C0000000C9434000C9432000C9432007C
:040050000C947E018D
:10005C000C9476010C9432001895189511272227D0
:10006C0033274427552766279927AA27BB27609350
:10007C000701D2E0C0E001E00883D2E0C1E001E07A
:10008C000883D2E0C2E002E00883D2E0C3E002E0E1
:10009C000883D2E0C4E003E00883D2E0C5E001E0CD
:1000AC000883D2E0C6E004E00883D2E0C7E002E0B7
:1000BC000883D2E0C8E005E00883D2E0C9E001E0A3
:1000CC000883D2E0CAE006E00883D2E0CBE002E08D
:1000DC000883D2E0CCE007E00883D2E0CDE001E079
:1000EC000883D2E0CEE008E00883D2E0CFE002E063
:1000FC000883D2E0C0E109E00883D2E0C1E101E06D
:10010C0008830027009399000093980001E0009366
:10011C00910003EA009390000FEF07B90DB90FEFB0
:10012C000DBF01E20EBF0FEF00BB01B9002701BBF1
:10013C0002B908E334D443D45CD408E330D43FD4BC
:10014C004FD408E32CD43BD408E329D438D408E0AA
:10015C0026D435D401E023D432D406E020D42FD4D5
:10016C000EE01DD42CD400E81AD429D420E024BDF0
:10017C0025E025BD21E020936E0020E02093800037
:10018C0023E020938100222720936F0000EF00933F
:10019C000A01789402E30AD412D401E307D40FD4F1
:1001AC0002E304D40CD401E301D409D400E2FED35D
:1001BC0006D401E3FBD303D407E3F8D300D403E75D
:1001CC00F5D3FDD301E3F2D3FAD300E2EFD3F7D3A7
:1001DC0000E2ECD3F4D300E2E9D3F1D305E4E6D3A7
:1001EC00EED304E3E3D3EBD308EAD9D3E8D306E5A3
:1001FC00DDD3E5D305E6DAD3E2D30EE6D7D3DFD3EE
:10020C0004E6D4D3DCD309E6D1D3D9D30EE6CED3CE
:10021C00D6D307E6CBD3D3D300E2C8D3D0D30DE4E7
:10022C00C5D3CDD301E6C2D3CAD303E6BFD3C7D35C
:10023C0008E6BCD3C4D309E6B9D3C1D30EE6B6D312
:10024C00BED305E6B3D3BBD301C0FFCF3FEE5527DA
:10025C005430E1F330930B010FEF0A95F1F7009155
:10026C0009010F700F3059F021E04427443039F068
:10027C00602F622349F04395220F0C943C01330FFD
:10028C00339553950C942E01533049F0433059F06B
:10029C00042F000F040F050F0F5C0C94E50102E313
:1002AC00040F0C946C01503031F0513071F003E2BA
:1002BC00B13061F419C1913021F091E071E070938B
:1002CC006F00A13031F00C942C0100E308B90C94B0
:1002DC002C01772770936F009927AA270C94FA03A7
:1002EC000FB70F931395103CE1F10F910FBF1895B9
:1002FC003F932F930F936F930FB70F9313953FEE7D
:10030C0030930B010FEF0A95F1F7009109010F7073
:10031C000F30D1F021E0220F220F220F602F622329
:10032C0009F012C013950AEA08B9193130F000EF40
:10033C0008B9A1E0772770936F000F910FBF6F91F1
:10034C000F912F913F911895772770936F009927F4
:10035C000FEF08B90F910FBF6F910F912F913F9134
:10036C0018951127222720936E0001E018D327D36C
:10037C0000E815D324D303E519D321D305E616D30E
:10038C001ED30CE613D31BD305E610D318D303E608
:10039C000DD315D304E70AD312D300E207D30FD33E
:1003AC0009E604D30CD304E701D309D305E6FED246
:1003BC0006D30DE6FBD203D30F910FBF18950F9305
:1003CC000053013081F00230A9F00330D1F0043039
:1003DC00F9F0053021F1063049F1073071F10830A0
:1003EC0099F10930C1F1E0E0F2E060810F916030E9
:1003FC00C9F1A3C0E2E0F2E060810F91603091F1AD
:10040C009CC0E4E0F2E060810F91603059F195C03E
:10041C00E6E0F2E060810F91603021F18EC0E8E0FF
:10042C00F2E060810F916030E9F087C0EAE0F2E021
:10043C0060810F916030B1F080C0ECE0F2E060813F
:10044C000F91603079F079C0EEE0F2E060810F91AD
:10045C00603041F072C0E0E1F2E060810F916030F9
:10046C0009F06BC00F9301E09AD2A9D20FE49ED28F
:10047C00A6D205E79BD2A3D204E798D2A0D200E281
:10048C0095D29DD20FE692D29AD206E68FD297D20F
:10049C0000E28CD294D203E789D291D204E786D2BF
:1004AC008ED20FE683D28BD203E680D288D20BE6B3
:1004BC007DD285D208EA73D282D20F91002F76D2E8
:1004CC007ED20FEF08B9ADD2002708B9AAD20FEF30
:1004DC0008B9A7D2002708B9A4D20FEF08B9A1D246
:1004EC00002708B99ED200C001E059D268D200E8BA
:1004FC0056D265D203E55AD262D205E657D25FD204
:10050C000CE654D25CD205E651D259D203E64ED257
:10051C0056D204E74BD253D200E248D250D209E66D
:10052C0045D24DD204E742D24AD205E63FD247D259
:10053C000DE63CD244D275D289CE0F93222720935C
:10054C006E0001E02CD23BD200E829D238D209E46B
:10055C002DD235D20EE62AD232D203E727D22FD2B1
:10056C0005E624D22CD202E721D229D204E71ED2EE
:10057C0026D200E21BD223D203E618D220D20FE6F9
:10058C0015D21DD209E612D21AD20EE60FD217D20C
:10059C0003E70CD214D200E209D211D203E206D244
:1005AC000ED20F91602F0F93062F00D208D208EABB
:1005BC00F6D105D200C0882762E0772778B908EA1F
:1005CC00EED1FDD1062F005D002FF0D1F8D10F93A5
:1005DC006F933FEE330F330F30930B010FEF0A95F0
:1005EC00F1F7009109010F700F3041F021E0220F5B
:1005FC00220F220F602F622341F100C06F910F91E7
:10060C00009106010170003011F700C00091060145
:10061C000F936F933FEE330F330F30930B010FEFAC
:10062C000A95F1F7009109010F700F3041F021E0AC
:10063C00220F220F220F602F622339F000C06F911E
:10064C000F910170013011F711C0803071F08A9553
:10065C000FEF0093990000939800DCD100270093D2
:10066C00990000939800D6D1F0CF3ECF0F936F93A3
:10067C003FEE330F330F30930B010FEF0A95F1F769
:10068C00009109010F700F3041F021E0220F220F71
:10069C00220F602F6223C9F200C06F910F9100915D
:1006AC0006010170003011F783956A95062F005DE5
:1006BC00770F71600F9378B908EA71D180D10F91DF
:1006CC00002F74D17CD1603009F081CF0FEF0DB9C0
:1006DC0007B901E064D173D104E468D170D105E6A7
:1006EC0065D16DD10CE662D16AD109E65FD167D1D3
:1006FC0006E75CD164D105E659D161D102E756D148
:10070C005ED109E653D15BD10EE650D158D107E644
:10071C004DD155D100E24AD152D109E447D14FD144
:10072C0004E744D14CD105E641D149D10DE63ED187
:10073C0046D16F9160530CD00FEF0093990000934A
:10074C00980075D100270093990000939800CCCEA7
:10075C00613089F06230B1F06330D9F0643001F16E
:10076C00653021F1663041F1673061F1683081F11B
:10077C006930A1F10895E0E0F2E0009100020A95E1
:10078C0000830895E2E0F2E0009101020A950083F3
:10079C000895E4E0F2E0009102020A9500830895C6
:1007AC00E6E0F2E000810A9500830895E8E0F2E0CB
:1007BC0000810A9500830895EAE0F2E000810A9531
:1007CC0000830895ECE0F2E000810A95008308951F
:1007DC00EEE0F2E000810A9500830895E0E1F2E09A
:1007EC0000810A950083089501E0D9D0E8D001E496
:1007FC00DDD0E5D004E6DAD0E2D00DE6D7D0DFD0FC
:10080C0009E6D4D0DCD00EE6D1D0D9D000E2CED0DF
:10081C00D6D00DE6CBD0D3D00FE6C8D0D0D004E6DE
:10082C00C5D0CDD005E6C2D0CAD000E2BFD0C7D06B
:10083C0001E3BCD0C4D008EAB2D0C1D00F93E0E041
:10084C00F2E00081005D002FB1D0B9D008B906EB01
:10085C00A6D0B5D004E2AAD0B2D0E1E0F2E000819B
:10086C00005D002FA3D0ABD00F91B1E059C00F9316
:10087C000053013079F00230A9F00330D9F0043084
:10088C0009F1053039F1063069F1073099F108307A
:10089C00C9F140C0E0E0F2E0C1E0D2E001E008B90B
:1008AC000F913EC0E2E0F2E0C3E0D2E003E008B911
:1008BC000F9136C0E4E0F2E0C5E0D2E007E008B901
:1008CC000F912EC0E6E0F2E0C7E0D2E00FE008B9ED
:1008DC000F9126C0E8E0F2E0C9E0D2E00FE108B9E0
:1008EC000F911EC0EAE0F2E0CBE0D2E00FE308B9D2
:1008FC000F9116C0ECE0F2E0CDE0D2E00FE708B9C2
:10090C000F910EC0EEE0F2E0CFE0D2E00FEF08B9AD
:10091C000F9106C0E0E1F2E0C1E1D2E00F9100C01E
:10092C0001E03DD04CD001E441D049D004E63ED0AA
:10093C0046D00DE63BD043D009E638D040D00EE689
:10094C0035D03DD000E232D03AD00DE62FD037D0A2
:10095C000FE62CD034D004E629D031D005E626D0D1
:10096C002ED000E223D02BD0002F20D028D008EAA4
:10097C0016D025D00F936F930081005D002F16D0F9
:10098C001ED006EB0CD01BD004E210D018D008817E
:10099C00002F0CD014D06F910F910C942C0101BB33
:1009AC001FD0169A1DD016981BD0089501BB179A0C
:1009BC0017D0169A15D0169813D0179808950F9330
:1009CC00002700BB01BB159A0BD0169A09D00FB1AA
:1009DC00169807FDF9CF15980FEF00BB0F910895EE
:1009EC008F939F939FE08CE90197F1F79F918F91E3
:1009FC000895F6DFF5DFF4DFF3DFF2DF0895F9DFBA
:100A0C00F8DFF7DFF6DF0895FADFF9DFF8DFF7DF5D
:100A1C00F6DF0895F9DFF8DFF2DFF1DFEADFE9DF77
:100A2C000895F2DFF1DFF0DFEFDFEEDF0895F9DF9D
:040A3C00F8DF089542
:00000001FF
