:020000020000FC
:0C0000000C9433000C9432000C9432007D
:10005C000C942A010C94320018951127222733276F
:10006C0044275527662760930701D2E0C0E001E0E2
:10007C000883D2E0C1E002E00883D2E0C2E003E0F2
:10008C000883D2E0C3E004E00883D2E0C4E005E0DA
:10009C000883D2E0C5E006E00883D2E0C6E007E0C2
:1000AC000883D2E0C7E008E00883D2E0C8E009E0AA
:1000BC0008830FEF07B90FEF0DBF01E20EBF0FEF73
:1000CC0000BB01B9002701BB02B908E346D155D1E9
:1000DC006ED108E342D151D161D108E33ED14DD16B
:1000EC0008E33BD14AD108E038D147D101E035D102
:1000FC0044D106E032D141D10EE02FD13ED100E8FF
:10010C002CD13BD120E024BD25E025BD21E020935E
:10011C006E0000EF00930A01789402E325D12DD1F3
:10012C0001E322D12AD102E31FD127D101E31CD153
:10013C0024D100E219D121D101E316D11ED107E35C
:10014C0013D11BD103E710D118D101E30DD115D177
:10015C0000E20AD112D100E207D10FD100E204D1A2
:10016C000CD105E401D109D104E3FED006D108EA93
:10017C00F4D003D106E5F8D000D105E6F5D0FDD0DA
:10018C000EE6F2D0FAD004E6EFD0F7D009E6ECD0C8
:10019C00F4D00EE6E9D0F1D007E6E6D0EED000E2DE
:1001AC00E3D0EBD00DE4E0D0E8D001E6DDD0E5D033
:1001BC0003E6DAD0E2D008E6D7D0DFD009E6D4D017
:1001CC00DCD00EE6D1D0D9D005E6CED0D6D001C049
:1001DC00FFCF3FEE55275430E1F330930B010FEF77
:1001EC000A95F1F7009109010F700F3059F021E0D9
:1001FC004427443039F0602F622349F04395220F95
:10020C000C94FF00330F339553950C94F10053303D
:10021C0049F0433059F0042F000F040F050F0F5C09
:10022C000C94600102E3040F0C942701503029F068
:10023C00513031F003E20C9427010AE20C942701AF
:10024C0000E308B90C94EF000FB70F931395103C13
:10025C0019F00F910FBF18951127222720936E00CC
:10026C0001E07BD08AD000E878D087D003E57CD041
:10027C0084D005E679D081D00CE676D07ED005E628
:10028C0073D07BD003E670D078D004E76DD075D0F6
:10029C0000E26AD072D009E667D06FD004E764D070
:1002AC006CD005E661D069D00DE65ED066D00F91BA
:1002BC000FBF18950F93222720936E0001E04DD0AD
:1002CC005CD000E84AD059D009E44ED056D00EE6A6
:1002DC004BD053D003E748D050D005E645D04DD095
:1002EC0002E742D04AD004E73FD047D000E23CD0EE
:1002FC0044D003E639D041D00FE636D03ED009E6E3
:10030C0033D03BD00EE630D038D003E72DD035D0EB
:10031C0000E22AD032D003E227D02FD00F91602FE9
:10032C00062F22D02AD00091060108B908EA15D070
:10033C0024D066270091060108B901700030D1F76E
:10034C000091060108B901700130D1F76395062FB1
:10035C00005D002F09D011D0EDCF01BB1FD0169A34
:10036C001DD016981BD0089501BB179A17D0169A5A
:10037C0015D0169813D0179808950F93002700BB2B
:10038C0001BB159A0BD0169A09D00FB1169807FD20
:10039C00F9CF15980FEF00BB0F9108958F939F9392
:1003AC009FE08CE90197F1F79F918F910895F6DF0B
:1003BC00F5DFF4DFF3DFF2DF0895F9DFF8DFF7DFC5
:0403CC00F6DF0895BB
:00000001FF
